:020000040800F2
:1000000000500020E1160008951600089B16000815
:10001000A1160008A7160008AD1600080000000091
:10002000000000000000000000000000C13A0008CD
:10003000B316000800000000A13C0008E93C0008DD
:100040002917000829170008291700082917000890
:100050002917000829170008A1130008291700080C
:100060002917000829170008291700082917000870
:100070002917000829170008291700082917000860
:100080002917000829170008291700082917000850
:100090002917000829170008291700082917000840
:1000A0002917000829170008291700082917000830
:1000B000C116000829170008291700082917000889
:1000C0002917000829170008291700082917000810
:1000D00029170008851300082917000829170008A8
:1000E0002917000829170008291700080000000038
:1000F0000000000000000000000000000000000000
:0C01000000000000000000005FF808F1A3
:1001100010B5054C237833B9044B13B10448AFF341
:1001200000800123237010BD80000020000000002B
:10013000A443000808B5034B1BB103490348AFF3C0
:10014000008008BD0000000084000020A4430008D7
:1001500081F0004102E000BF83F0004330B54FEA78
:1001600041044FEA430594EA050F08BF90EA020FE5
:100170001FBF54EA000C55EA020C7FEA645C7FEA78
:10018000655C00F0E2804FEA5454D4EB5555B8BF9B
:100190006D420CDD2C4480EA020281EA030382EA0C
:1001A000000083EA010180EA020281EA0303362D9E
:1001B00088BF30BD11F0004F4FEA01314FF4801C71
:1001C0004CEA113102D0404261EB410113F0004F83
:1001D0004FEA03334CEA133302D0524263EB43033A
:1001E00094EA050F00F0A780A4F10104D5F1200ED8
:1001F0000DDB02FA0EFC22FA05F2801841F1000133
:1002000003FA0EF2801843FA05F359410EE0A5F106
:1002100020050EF1200E012A03FA0EFC28BF4CF037
:10022000020C43FA05F3C01851EBE37101F00045ED
:1002300007D54FF0000EDCF1000C7EEB00006EEBFA
:100240000101B1F5801F1BD3B1F5001F0CD3490884
:100250005FEA30004FEA3C0C04F101044FEA4452DB
:1002600012F5800F80F09A80BCF1004F08BF5FEA62
:10027000500C50F1000041EB045141EA050130BD42
:100280005FEA4C0C404141EB0101013C28BFB1F554
:10029000801FE9D291F0000F04BF01460020B1FA9F
:1002A00081F308BF2033A3F10B03B3F120020CDA72
:1002B0000C3208DD02F1140CC2F10C0201FA0CF050
:1002C00021FA02F10CE002F11402D8BFC2F1200CB5
:1002D00001FA02F120FA0CFCDCBF41EA0C0190406B
:1002E000E41AA2BF01EB0451294330BD6FEA0404B4
:1002F0001F3C1CDA0C340EDC04F11404C4F120029F
:1003000020FA04F001FA02F340EA030021FA04F3B0
:1003100045EA030130BDC4F10C04C4F1200220FA07
:1003200002F001FA04F340EA0300294630BD21FA45
:1003300004F0294630BD94F0000F83F4801306BF0B
:1003400081F480110134013D4EE77FEA645C18BFFF
:100350007FEA655C29D094EA050F08BF90EA020F96
:1003600005D054EA000C04BF1946104630BD91EA8E
:10037000030F1EBF0021002030BD5FEA545C05D191
:100380004000494128BF41F0004130BD14F58004D0
:100390003CBF01F5801130BD01F0004545F0FE4144
:1003A00041F470014FF0000030BD7FEA645C1ABF79
:1003B000194610467FEA655C1CBF0B46024650EAB0
:1003C000013406BF52EA033591EA030F41F40021DC
:1003D00030BD00BF90F0000F04BF0021704730B562
:1003E0004FF4806404F132044FF000054FF0000137
:1003F00050E700BF90F0000F04BF0021704730B5F8
:100400004FF4806404F1320410F0004548BF4042CC
:100410004FF000013EE700BF42004FEAE2014FEA21
:1004200031014FEA02701FBF12F07F4393F07F4FFC
:1004300081F06051704732F07F4208BF704793F0FF
:100440007F4F04BF41F40021704730B54FF4607412
:1004500001F0004521F000411CE700BF50EA010215
:1004600008BF704730B54FF000050AE050EA0102BE
:1004700008BF704730B511F0004502D5404261EB2E
:1004800041014FF4806404F132045FEA915C3FF46F
:10049000D8AE4FF003025FEADC0C18BF03325FEA0C
:1004A000DC0C18BF033202EBDC02C2F1200300FABD
:1004B00003FC20FA02F001FA03FE40EA0E0021FAE2
:1004C00002F11444BDE600BF70B54FF0FF0C4CF4D0
:1004D000E06C1CEA11541DBF1CEA135594EA0C0F82
:1004E00095EA0C0F00F0DEF82C4481EA030621EABD
:1004F0004C5123EA4C5350EA013518BF52EA0335F8
:1005000041F4801143F4801338D0A0FB02CE4FF0A9
:100510000005E1FB02E506F00042E0FB03E54FF0D9
:100520000006E1FB03569CF0000F18BF4EF0010ED1
:10053000A4F1FF04B6F5007F64F5407404D25FEACD
:100540004E0E6D4146EB060642EAC62141EA555180
:100550004FEAC52040EA5E504FEACE2EB4F1FD0CC2
:1005600088BFBCF5E06F1ED8BEF1004F08BF5FEA40
:10057000500E50F1000041EB045170BD06F00046F2
:1005800046EA010140EA020081EA0301B4EB5C049F
:10059000C2BFD4EB0C0541EA045170BD41F4801197
:1005A0004FF0000E013C00F3AB8014F1360FDEBFBC
:1005B000002001F0004170BDC4F10004203C35DA98
:1005C0000C341BDC04F11404C4F1200500FA05F31B
:1005D00020FA04F001FA05F240EA020001F00042BC
:1005E00021F0004110EBD37021FA04F642EB060132
:1005F0005EEA430E08BF20EAD37070BDC4F10C045C
:10060000C4F1200500FA04F320FA05F001FA04F21F
:1006100040EA020001F0004110EBD37041F100010B
:100620005EEA430E08BF20EAD37070BDC4F1200516
:1006300000FA05F24EEA020E20FA04F301FA05F27E
:1006400043EA020321FA04F001F0004121FA04F226
:1006500020EA020000EBD3705EEA430E08BF20EAF6
:10066000D37070BD94F0000F0FD101F00046400030
:1006700041EB010111F4801F08BF013CF7D041EAB2
:10068000060195F0000F18BF704703F000465200B6
:1006900043EB030313F4801F08BF013DF7D043EA87
:1006A0000603704794EA0C0F0CEA135518BF95EA3D
:1006B0000C0F0CD050EA410618BF52EA4306D1D1C4
:1006C00081EA030101F000414FF0000070BD50EAE3
:1006D000410606BF1046194652EA430619D094EA6D
:1006E0000C0F02D150EA013613D195EA0C0F05D157
:1006F00052EA03361CBF104619460AD181EA0301AB
:1007000001F0004141F0FE4141F470014FF0000062
:1007100070BD41F0FE4141F4780170BD70B54FF0FD
:10072000FF0C4CF4E06C1CEA11541DBF1CEA13557D
:1007300094EA0C0F95EA0C0F00F0A7F8A4EB05045F
:1007400081EA030E52EA03354FEA013100F0888056
:100750004FEA03334FF0805545EA131343EA12631F
:100760004FEA022245EA111545EA10654FEA0026D4
:100770000EF000419D4208BF964244F1FD0404F58D
:10078000407402D25B084FEA3202B61A65EB0305E9
:100790005B084FEA32024FF480104FF4002CB6EBA6
:1007A000020E75EB030E22BFB61A754640EA0C0026
:1007B0005B084FEA3202B6EB020E75EB030E22BF66
:1007C000B61A754640EA5C005B084FEA3202B6EBA7
:1007D000020E75EB030E22BFB61A754640EA9C0066
:1007E0005B084FEA3202B6EB020E75EB030E22BF36
:1007F000B61A754640EADC0055EA060E18D04FEAF4
:10080000051545EA16754FEA06164FEAC30343EA93
:1008100052734FEAC2025FEA1C1CC0D111F4801F60
:100820000BD141EA00014FF000004FF0004CB6E759
:1008300011F4801F04BF01430020B4F1FD0C88BFF8
:10084000BCF5E06F3FF6AFAEB5EB030C04BFB6EB03
:10085000020C5FEA500C50F1000041EB045170BDF6
:100860000EF0004E4EEA113114EB5C04C2BFD4EB23
:100870000C0541EA045170BD41F480114FF0000EA7
:10088000013C90E645EA060E8DE60CEA135594EA23
:100890000C0F08BF95EA0C0F3FF43BAF94EA0C0F26
:1008A0000AD150EA01347FF434AF95EA0C0F7FF49B
:1008B00025AF104619462CE795EA0C0F06D152EAEF
:1008C00003353FF4FDAE1046194622E750EA4106D3
:1008D00018BF52EA43067FF4C5AE50EA41047FF4E4
:1008E0000DAF52EA43057FF4EBAE12E74FF0FF3C49
:1008F00006E000BF4FF0010C02E000BF4FF0010C1A
:100900004DF804CD4FEA410C7FEA6C5C4FEA430C92
:1009100018BF7FEA6C5C1BD001B050EA410C0CBFE1
:1009200052EA430C91EA030F02BF90EA020F002043
:10093000704710F1000F91EA030F58BF994208BFAA
:1009400090422CBFD8176FEAE37040F00100704767
:100950004FEA410C7FEA6C5C02D150EA013C07D1BE
:100960004FEA430C7FEA6C5CD6D152EA033CD3D009
:100970005DF8040B704700BF8446104662468C4603
:100980001946634600E000BF01B5FFF7B7FF002836
:1009900048BF10F1000F01BD4DF808EDFFF7F4FF5F
:1009A0000CBF012000205DF808FB00BF4DF808EDEA
:1009B000FFF7EAFF34BF012000205DF808FB00BF0D
:1009C0004DF808EDFFF7E0FF94BF012000205DF82F
:1009D00008FB00BF4DF808EDFFF7CEFF94BF0120E4
:1009E00000205DF808FB00BF4DF808EDFFF7C4FFDD
:1009F00034BF012000205DF808FB00BF4A0011D27F
:100A000012F5001211D20DD56FF47873B3EB625268
:100A10000ED44FEAC12343F0004343EA505323FA74
:100A200002F070474FF00000704750EA013002D1E9
:100A30004FF0FF3070474FF00000704780B483B034
:100A400000AF0346FB7197F90730002B0BDBFB79F6
:100A500003F01F02064997F907305B09012000FAED
:100A600002F241F8232000BF0C37BD4680BC70471E
:100A700000E100E080B590B000AF03463960FB8034
:100A800072B600BF5F4B9B695E4A43F001039361FE
:100A90005D4A07F1300307CA83E807005B4A07F1A4
:100AA000240307CA83E80700594A07F11C0392E8A8
:100AB0000300186004331980564A07F1100307CA6F
:100AC00083E80700FB88013B9B0007F140021344C9
:100AD00053F8303C1968FB88013B9B0007F140024A
:100AE000134453F81C2CFB88013B9B0007F140008A
:100AF000034453F8303C0A431A60474A07F10C0399
:100B00001268114619800233120C1A70FB88013BDF
:100B100007F14002134413F8343C98B2FB88013BC0
:100B20005B0007F14002134413F8243C99B20223FE
:100B3000032200F0DFF9FB88013B07F14002134478
:100B400013F8343C98B2FB88013B5B0007F140028C
:100B5000134413F8233C99B20223002200F0CAF98F
:100B6000386800F05DF8F863FB88013B9B0007F1F3
:100B70004002134453F8103CFA6B9A60FB88013B27
:100B80009B0007F14002134453F8103CDA68FB88DD
:100B9000013B9B0007F140010B4453F8103C42F02D
:100BA0002002DA60FB88013B9B0007F140021344FE
:100BB00053F8103CD968FB88013B9B0007F14002C9
:100BC000134453F8102C41F4005343F00C03D3604A
:100BD000124A07F108031268114619800233120CF9
:100BE0001A70FB88013B07F14002134413F9383CAB
:100BF0001846FFF723FF62B600BF00BF4037BD466F
:100C000080BD00BF00100240BC430008C84300087C
:100C1000D4430008DC430008E8430008EC43000824
:100C2000B0B58AB000AF78603B4B7B6238A3D3E9A4
:100C30000023C7E906234FF00002384BC7E904231D
:100C40007B681B017A6AB2FBF3F37B627B681B0152
:100C50001846FFF7BFFB02460B46D7E90601FFF730
:100C60005DFD02460B4614461D46786AFFF7B2FB4F
:100C700002460B4620462946FFF76EFA02460B460F
:100C8000104619464FF00002254BFFF71DFC0246A7
:100C90000B46C7E90623D7E90601FFF7AFFE034677
:100CA0003B62386AFFF796FB02460B46D7E906011E
:100CB000FFF752FA02460B46104619464FF0000263
:100CC000184BFFF701FC02460B46C7E904234FF01F
:100CD0000002154BD7E90401FFF786FE0346002BFF
:100CE0000AD03B6A01333B623B6A102B04D10023DC
:100CF0003B627B6A01337B627B6A1B01FB60FA68A3
:100D00003B6A1344FB60FB6818462837BD46B0BDFC
:100D10000000000080845E4100127A000000F03F75
:100D200000003040000059400000494080B487B0C6
:100D300000AF0346FB80114A07F10C0307CA83E8A2
:100D4000070000BFFB88013B9B0007F1180213441A
:100D500053F80C3C1B6803F02003002BF2D0FB88F7
:100D6000013B9B0007F11802134453F80C3C5B68ED
:100D7000DBB218461C37BD4680BC7047BC43000838
:100D800080B487B000AF03460A46FB8013467B71F0
:100D9000114A07F10C0307CA83E80700FB88013BEF
:100DA0009B0007F11802134453F80C3C7A795A60FF
:100DB00000BFFB88013B9B0007F11802134453F866
:100DC0000C3C1B6803F04003002BF2D000BF00BFB7
:100DD0001C37BD4680BC7047BC43000880B584B05A
:100DE00000AF03463960FB800023FB600BE0FB682B
:100DF0005A1CFA601A463B6813441A78FB8811465D
:100E00001846FFF7BDFFFB683A6813441B78002BB8
:100E1000EDD100BF00BF1037BD4680BD90B585B095
:100E200000AF0346B9607A60FB81BB6804331B885E
:100E3000002B36D1BB681B881A467B689C18FB893F
:100E40001846FFF773FF03462370BB6806331B8801
:100E5000002B1AD0BB681B881A467B6813441B788A
:100E60009AB2BB6808331B889A4207D1BB6800223C
:100E70001A80BB68023301221A801EE0BB681B88FF
:100E800001339AB2BB681A8017E0BB681B88013334
:100E90009AB2BB681A80BB680C33BA6852891A8050
:100EA0000BE0BB6804331C88FB891846FFF73EFF44
:100EB000034619462046FFF763FF00BF1437BD46BF
:100EC00090BD000080B485B000AFF860B9607A6072
:100ED000FB68064A1A60BB68054A1A607B68802274
:100EE0001A6000BF1437BD4680BC70479C000020CC
:100EF0005001002090B488B000AF04460846114667
:100F00001A462346FB800346BB800B467B80134674
:100F10003B80BB88FB830023BB83BB88072B04D9A2
:100F2000FB8B083BFB830123BB83BB8B9B0003F143
:100F3000804303F584333B61BB8B9B0003F180430B
:100F400003F586337B61BB8B9B0003F1804303F584
:100F50008833BB61294A07F10C03126811461980D6
:100F60000233120C1A70264B1B68FA88013A07F1FB
:100F700020010A4412F8142C1146214A0B43136035
:100F8000FB88013B9B0007F12002134453F8103CFF
:100F90001A68FB8B9B000F2101FA03F3DB43194610
:100FA000FB88013B9B0007F12000034453F8103CF1
:100FB0000A401A60FB88013B9B0007F120021344A2
:100FC00053F8103C1A687988FB8B9B00994038884D
:100FD000FB8B9B00023300FA03F30B431946FB889B
:100FE000013B9B0007F12000034453F8103C0A43E7
:100FF0001A6000BF2037BD4690BC7047F043000820
:101000001810024080B487B000AF0346FB800B4647
:10101000BB8013467B80234A07F10C0307CA83E891
:10102000070072B600BF7B889BB2002B19D07B886B
:101030009BB21A46BB8802FA03F1FB88013B9B0076
:1010400007F11802134453F80C3C1A68FB88013B63
:101050009B0007F11800034453F80C3C0A431A6044
:1010600018E0FB88013B9B0007F11802134453F87A
:101070000C3C1A68BB88012101FA03F3DB431946D3
:10108000FB88013B9B0007F11800034453F80C3C1C
:101090000A401A6062B600BF00BF1C37BD4680BC64
:1010A000704700BF0044000880B485B000AF78608E
:1010B0000023FB6007E0FB687A68134400221A7083
:1010C000FB680133FB60FB687A6813441B78002BD4
:1010D000F1D100BF00BF1437BD4680BC704780B45B
:1010E00085B000AF78600023FB6000BFFB685A1C2E
:1010F000FA601A467B6813441B78002BF6D1FB6814
:10110000013B18461437BD4680BC704780B588B097
:1011100000AF786039600023FB617868FFF7DFFF7C
:10112000F8600023BB6100237B6124E000233B6166
:1011300018E03B697A6813441A7879693B690B4473
:1011400019463B680B441B789A4208D1BB690133AE
:10115000BB61BA69FB689A4201D10123FB613B691B
:1011600001333B613A69FB689A42E2DD0023BB61CF
:101170007B6901337B617A69FB681344013B3A6800
:1011800013441A787969FB680B4419463B680B4491
:101190001B781343DBB2002B14BF01230023DAB208
:1011A000FB69002B0CBF01230023DBB21340DBB231
:1011B000002BBBD1FB6918462037BD4680BD80B4EB
:1011C00085B000AF786039600023FB600023BB600E
:1011D00000BFFB685A1CFA601A467B6813441B78F0
:1011E000002BF6D1FB68013BFB600DE0BB683A6861
:1011F0001A44F968BB680B4419467B680B441278A3
:101200001A70BB680133BB60BB683A6813441B7833
:10121000002BEBD100BF00BF1437BD4680BC704728
:1012200080B483B000AF0346FB7197F90730002B01
:101230000BDBFB7903F01F02064997F907305B09C6
:10124000012000FA02F241F8232000BF0C37BD460E
:1012500080BC704700E100E0B0B592B000AF02235F
:10126000002200210120FFF745FE72B600BF394B76
:1012700000229A60384B1B68374A43F00103136021
:10128000354B9B68344A43F0010393600620FFF717
:10129000C7FF62B600BF002303220E210320FFF721
:1012A00029FE002303220D210320FFF723FE4FF424
:1012B00016510120FFF7DEFB28490120FFF78EFDC4
:1012C00027490120FFF78AFD00233B64254B7B64FF
:1012D00007F140030121184600F007FC0346224AAB
:1012E00013600023BB63214BFB6307F1380301212B
:1012F000184600F0FAFB03461D4A13601C4B1B689E
:10130000184600F07FFC1B4B07F11C041D460FCD57
:101310000FC495E8070084E8070007F11C030021CB
:10132000184600F082FB0346134A1360134B3C46F9
:101330001D460FCD0FC495E8070084E807003B4623
:101340000021184600F071FB03460D4A136000F0BF
:1013500065FBFEE700000140000401401C4400085A
:1013600020440008E411002034120020A0100020C6
:1013700038120020344400082C1200205044000889
:101380003012002080B500AF034A04490120FFF766
:1013900045FD00BF80BD00BFE81000200000002018
:1013A00080B500AF084B5B69074A43F00103536106
:1013B000064B1B68184600F025FC054B1B681846B9
:1013C00000F020FC00BF80BD000401403812002066
:1013D0003412002080B582B000AF7860194B1B68D2
:1013E0004FF0FF31184600F0BFFB1749174800F0D7
:1013F0006FF8144B1B68184600F004FC144912489F
:1014000002F060FF0346002B05D000220E210320CE
:10141000FFF7F8FD0BE00F490B4802F053FF0346BE
:10142000002B04D001220E210320FFF7EBFD06481C
:10143000FFF73AFE054B00221A804FF4FA7000F0D5
:1014400040FBCBE738120020E8100020000000200D
:101450006C4400087444000880B582B000AF786026
:101460000E4B1B684FF0FF31184600F07DFB0C4B14
:101470001B684FF0FF31184600F076FB094A0A4915
:101480000A4800F079F8064B1B68184600F0BAFBD2
:101490004FF4FA7000F015FBE2E700BF34120020B1
:1014A000381200207C440008E810002000000020D2
:1014B00080B582B000AF78607B681B68B3F1804F65
:1014C00001D100F033F900BF0837BD4680BD0000F0
:1014D00080B584B000AF786039600023FB60386865
:1014E000FFF7E2FD7B6800221A801E490120FFF70A
:1014F00075FC02E0FB680133FB6039681A48FFF7AE
:1015000005FE0346002BF5D0FB68184A9342F1D044
:101510003868FFF7C9FD7B6800221A800023FB6052
:1015200013490120FFF75AFC02E0FB680133FB601E
:1015300039680D48FFF7EAFD0346002BF5D0FB683C
:101540000A4A9342F1D03868FFF7AEFD7B6800226B
:101550001A8008490120FFF741FC00BF1037BD4643
:1015600080BD00BF844400088844000840420F004A
:101570008C4400089444000880B592B000AFF86035
:10158000B9607A6000237B64FB6800221A80B86827
:10159000FFF78AFDFB6800221A8037490120FFF718
:1015A0001DFCB9683548FFF7B1FD02E07B6C0133E3
:1015B0007B64B9683148FFF7A9FD0346002BF5D0DD
:1015C0007B6C2F4A9342F1D000237B64B868FFF70D
:1015D0006BFDFB6800221A802A490120FFF7FEFB01
:1015E00002E07B6C01337B64B9682448FFF78EFD11
:1015F0000346002BF5D07B6C214A9342F1D00023A7
:101600007B6407F1100320491846FFF7D8FD07F166
:10161000100379681846FFF7D2FD07F110031B4944
:101620001846FFF7CCFDB868FFF73EFDFB680022C7
:101630001A8007F1100319460120FFF7CFFB02E0E3
:101640007B6C01337B64B9680C48FFF75FFD034690
:10165000002BF5D07B6C0A4A9342F1D0B868FFF7B3
:1016600023FDFB6800221A8009490120FFF7B6FB21
:1016700000BF4837BD4680BD844400088844000848
:1016800040420F008C440008A0440008AC4400080D
:101690009444000880B400AFFEE780B400AFFEE7DA
:1016A00080B400AFFEE780B400AFFEE780B400AFC7
:1016B000FEE780B400AF00BFBD4680BC70470000AD
:1016C00080B500AF024800F043F800BF80BD00BF06
:1016D0003C12002080B400AF00BFBD4680BC704704
:1016E0000C480D490D4A002302E0D458C45004337D
:1016F000C4188C42F9D30A4A0A4C002301E0136053
:101700000432A242FBD3FFF7E5FF02F035FDFFF7FD
:10171000A3FD704700000020800000202045000845
:101720008000002094120020FEE7000080B400AF8B
:10173000054B1B781A46054B1B681344034A13607C
:1017400000BFBD4680BC70471400002084120020FA
:1017500080B582B000AF78607B681B681B6903F0BE
:101760000203022B22D17B681B68DB6803F00203B3
:10177000022B1BD17B681B686FF002021A617B6829
:1017800001221A777B681B689B6903F00303002B17
:1017900003D0786800F0EDF805E0786800F0E0F834
:1017A000786800F0EFF87B6800221A777B681B6886
:1017B0001B6903F00403042B22D17B681B68DB68E0
:1017C00003F00403042B1BD17B681B686FF0040239
:1017D0001A617B6802221A777B681B689B6903F495
:1017E0004073002B03D0786800F0C3F805E07868F8
:1017F00000F0B6F8786800F0C5F87B6800221A7728
:101800007B681B681B6903F00803082B22D17B68E7
:101810001B68DB6803F00803082B1BD17B681B687F
:101820006FF008021A617B6804221A777B681B68D4
:10183000DB6903F00303002B03D0786800F099F80C
:1018400005E0786800F08CF8786800F09BF87B6819
:1018500000221A777B681B681B6903F01003102BAA
:1018600022D17B681B68DB6803F01003102B1BD1AF
:101870007B681B686FF010021A617B6808221A7778
:101880007B681B68DB6903F44073002B03D0786826
:1018900000F06FF805E0786800F062F8786800F012
:1018A00071F87B6800221A777B681B681B6903F05C
:1018B0000103012B0ED17B681B68DB6803F0010379
:1018C000012B07D17B681B686FF001021A617868F1
:1018D000FFF7EEFD7B681B681B6903F08003802B1C
:1018E0000ED17B681B68DB6803F08003802B07D177
:1018F0007B681B686FF080021A61786800F05DF801
:101900007B681B681B6903F04003402B0ED17B688A
:101910001B68DB6803F04003402B07D17B681B6822
:101920006FF040021A61786800F035F87B681B6838
:101930001B6903F02003202B0ED17B681B68DB683A
:1019400003F02003202B07D17B681B686FF0200277
:101950001A61786800F028F800BF0837BD4680BDDE
:1019600080B483B000AF786000BF0C37BD4680BC48
:10197000704780B483B000AF786000BF0C37BD46BD
:1019800080BC704780B483B000AF786000BF0C3774
:10199000BD4680BC704780B483B000AF786000BFA4
:1019A0000C37BD4680BC704780B483B000AF786010
:1019B00000BF0C37BD4680BC704780B483B000AF19
:1019C000786000BF0C37BD4680BC704780B485B0DE
:1019D00000AF0346FB800023FB60B7F90630842B81
:1019E00005D0B7F90620FB6813440333FB60FB689E
:1019F00018461437BD4680BC704780B483B000AF32
:101A0000EFF305837B607B68002B14BF0123002369
:101A1000DBB218460C37BD4680BC704780B500AFBE
:101A200001F090F90023184680BDF0B589B004AFED
:101A3000786039607B685B69002B20D07B689B698C
:101A4000002B1CD07B685C687B681D687B681E6906
:101A50007B68B3F908301846FFF7B8FF01467B688A
:101A60005B697A6892690292019300913B68324601
:101A70002946204600F091FF0346FB601CE07B688E
:101A80005C687B681D687B681B699EB27B68B3F9E4
:101A900008301846FFF79AFF024607F10C0301933E
:101AA00000923B6832462946204600F0D2FF0346AA
:101AB000012B01D0002300E0FB6818461437BD4617
:101AC000F0BD80B584B000AF78607B68FB60FB68D8
:101AD000002B01D0FB6800E00123184601F0FEF85E
:101AE000002318461037BD4680BD80B586B002AFD2
:101AF000786039607B685B68002B16D03B68012BEF
:101B00000AD17B685B680322009200220021012039
:101B100000F0C6F9034623E0386839687B685B68E3
:101B20001A4600F091FA03461AE03B68012B10D1E7
:101B300003220021012000F02AFAF860FB68002B44
:101B400005D0002300220021F86800F0E7FAFB68C6
:101B500006E03B683A681146184600F0ACFA0346C6
:101B600018461037BD4680BD80B584B000AF7860A0
:101B700039600023BB607B68002B01D180233AE0F1
:101B80000023FB603B68B3F1FF3F03D14FF0FF330D
:101B9000FB6009E03B68002B06D03B68FB60FB68FC
:101BA000002B01D10123FB60FFF727FF0346002B29
:101BB00017D007F108031A460021786800F046FDA7
:101BC0000346012B01D0FF2315E0BB68002B11D089
:101BD0000B4B4FF080521A60BFF34F8FBFF36F8FE4
:101BE00008E0F968786800F025FC0346012B01D075
:101BF000FF2300E0002318461037BD4680BD00BF1C
:101C000004ED00E080B584B000AF78600023FB6095
:101C10000023BB60FFF7F1FE0346002B16D007F14F
:101C200008031946786800F077FB0346012B01D0C2
:101C3000FF2317E0BB68002B13D00C4B4FF08052F2
:101C40001A60BFF34F8FBFF36F8F0AE000230022AB
:101C50000021786800F062FA0346012B01D0FF23CF
:101C6000FB60FB6818461037BD4680BD04ED00E000
:101C700080B483B000AF78607B6803F108027B68B2
:101C80005A607B684FF0FF329A607B6803F108026C
:101C90007B68DA607B6803F108027B681A617B6805
:101CA00000221A6000BF0C37BD4680BC704780B46C
:101CB00083B000AF78607B6800221A6100BF0C37E8
:101CC000BD4680BC704780B485B000AF7860396095
:101CD0007B685B68FB603B68FA685A60FB689A68DF
:101CE0003B689A60FB689B683A685A60FB683A6890
:101CF0009A603B687A681A617B681B685A1C7B682B
:101D00001A6000BF1437BD4680BC704780B485B0F0
:101D100000AF786039603B681B68BB60BB68B3F19B
:101D2000FF3F03D17B681B69FB600CE07B680833D5
:101D3000FB6002E0FB685B68FB60FB685B681B683C
:101D4000BA689A42F6D2FB685A683B685A603B68A8
:101D50005B683A689A603B68FA689A60FB683A6820
:101D60005A603B687A681A617B681B685A1C7B68FA
:101D70001A6000BF1437BD4680BC704780B485B080
:101D800000AF78607B681B69FB607B685B687A6882
:101D900092689A607B689B687A6852685A60FB68B0
:101DA0005B687A689A4203D17B689A68FB685A60DC
:101DB0007B6800221A61FB681B685A1EFB681A6068
:101DC000FB681B6818461437BD4680BC704700008E
:101DD00080B584B000AF786039607B68FB60FB68D9
:101DE000002B0AD14FF0500383F31188BFF36F8F9C
:101DF000BFF34F8FBB6000BFFEE701F0F7FEFB684B
:101E00001A68FB68DB6BF968096C01FB03F31A4481
:101E1000FB685A60FB6800229A63FB681A68FB68DB
:101E20009A60FB681A68FB68DB6B013BF968096C18
:101E300001FB03F31A44FB68DA60FB68FF2283F8B6
:101E40004420FB68FF2283F845203B68002B14D117
:101E5000FB681B69002B1AD0FB681033184601F091
:101E6000C9F90346002B12D00C4B4FF080521A6078
:101E7000BFF34F8FBFF36F8F09E0FB681033184635
:101E8000FFF7F6FEFB6824331846FFF7F1FE01F07A
:101E9000DDFE012318461037BD4680BD04ED00E08D
:101EA00080B58EB002AFF860B9607A603B60FB68C5
:101EB000002B0AD14FF0500383F31188BFF36F8FCB
:101EC000BFF34F8FBB6200BFFEE73B68002B0AD118
:101ED0004FF0500383F31188BFF36F8FBFF34F8F21
:101EE0007B6200BFFEE77B68002B02D0BB68002B43
:101EF00001D0012300E00023002B0AD14FF0500352
:101F000083F31188BFF36F8FBFF34F8F3B6200BF26
:101F1000FEE77B68002B02D1BB68002B01D10123B7
:101F200000E00023002B0AD14FF0500383F3118807
:101F3000BFF36F8FBFF34F8FFB6100BFFEE74823F6
:101F40007B617B69482B0AD04FF0500383F31188E3
:101F5000BFF36F8FBFF34F8FBB6100BFFEE73B68DE
:101F6000FB62FB6A002B0DD0FB6A012283F846203E
:101F700097F83820FB6A009313467A68B968F868C6
:101F800000F043F8FB6A18463037BD4680BD80B587
:101F90008AB002AFF860B9601346FB71FB68002B92
:101FA0000AD14FF0500383F31188BFF36F8FBFF353
:101FB0004F8F3B6100BFFEE7BB68002B02D10023BF
:101FC000FB6104E0FB68BA6802FB03F3FB61FB6999
:101FD0004833184601F0F8FEB861BB69002B0FD0FA
:101FE000BB6948337B61BB69002283F84620FA79DC
:101FF000BB69009313467A69B968F86800F005F880
:10200000BB6918462037BD4680BD80B584B000AF9F
:10201000F860B9607A60FB70BB68002B03D1BB69C4
:10202000BA691A6002E0BB697A681A60BB69FA682B
:10203000DA63BB69BA681A640121B869FFF7C8FEA0
:1020400000BF1037BD4680BD80B58AB002AFF860D2
:10205000B9607A60FB68002B0AD14FF0500383F31C
:102060001188BFF36F8FBFF34F8FBB6100BFFEE7D7
:10207000BA68FB689A420AD94FF0500383F311887B
:10208000BFF36F8FBFF34F8F7B6100BFFEE702236B
:1020900000937B6800220021F868FFF701FFF861D8
:1020A000FB69002B02D0FB69BA689A63FB6918468A
:1020B0002037BD4680BD80B586B000AF78603960FE
:1020C0007B68002B0AD14FF0500383F31188BFF3D4
:1020D0006F8FBFF34F8F3B6100BFFEE73A687B68AD
:1020E0009A420AD94FF0500383F31188BFF36F8FE0
:1020F000BFF34F8FFB6000BFFEE70222002178682C
:10210000FFF745FF78617B69002B02D07B693A6855
:102110009A637B6918461837BD4680BD80B58EB07E
:1021200000AFF860B9607A603B6000237B63FB68B6
:102130003B633B6B002B0AD14FF0500383F31188B4
:10214000BFF36F8FBFF34F8FBB6200BFFEE7BB686B
:10215000002B03D13B6B1B6C002B01D1012300E052
:102160000023002B0AD14FF0500383F31188BFF3F3
:102170006F8FBFF34F8F7B6200BFFEE73B68022B80
:1021800003D13B6BDB6B012B01D1012300E000236A
:10219000002B0AD14FF0500383F31188BFF36F8FE8
:1021A000BFF34F8F3B6200BFFEE701F0E7F9034644
:1021B000002B02D17B68002B01D1012300E000231A
:1021C000002B0AD14FF0500383F31188BFF36F8FB8
:1021D000BFF34F8FFB6100BFFEE701F007FD3B6BD4
:1021E0009A6B3B6BDB6B9A4202D33B68022B29D183
:1021F0003A68B968386B00F0C0FAF8623B6B5B6A0A
:10220000002B10D03B6B2433184600F0F3FF03463D
:10221000002B13D03F4B4FF080521A60BFF34F8F0B
:10222000BFF36F8F0AE0FB6A002B07D0394B4FF0EA
:1022300080521A60BFF34F8FBFF36F8F01F006FD1E
:10224000012363E07B68002B03D101F0FFFC002336
:102250005CE07B6B002B06D107F11403184601F0FC
:102260002BF801237B6301F0F1FC00F0D5FD01F0B8
:10227000BDFC3B6B93F844305BB2B3F1FF3F03D13D
:102280003B6B002283F844203B6B93F845305BB2F4
:10229000B3F1FF3F03D13B6B002283F8452001F0EF
:1022A000D5FC3A1D07F114031146184601F01AF83F
:1022B0000346002B24D1386B00F057FB0346002B5C
:1022C00018D03B6B10337A681146184600F06EFF49
:1022D000386B00F0E2FA00F0ADFD0346002B7FF40E
:1022E0007CAF0C4B4FF080521A60BFF34F8FBFF39F
:1022F0006F8F72E7386B00F0D0FA00F09BFD6CE74F
:10230000386B00F0CAFA00F095FD00231846383704
:10231000BD4680BD04ED00E080B58EB000AF7860B2
:1023200039607B683B633B6B002B0AD14FF0500355
:1023300083F31188BFF36F8FBFF34F8F3B6200BFF2
:10234000FEE73B6B1B6C002B0AD04FF0500383F36E
:102350001188BFF36F8FBFF34F8FFB6100BFFEE7A4
:102360003B6B1B68002B03D13B6B5B68002B01D1DF
:10237000012300E00023002B0AD14FF0500383F328
:102380001188BFF36F8FBFF34F8FBB6100BFFEE7B4
:1023900001F0EEFCEFF311824FF0500383F311884C
:1023A000BFF36F8FBFF34F8F7A613B617B69FB6235
:1023B0003B6B9B6BBB623B6BDB6BBA6A9A422BD26B
:1023C0003B6B93F8453087F82730BB6A5A1C3B6B50
:1023D0009A6397F92730B3F1FF3F12D13B6B5B6AE9
:1023E000002B16D03B6B2433184600F003FF034646
:1023F000002B0ED03B68002B0BD03B6801221A60EB
:1024000007E097F827300133DBB25AB23B6B83F811
:10241000452001237B6301E000237B63FB6AFB60B3
:10242000FB6883F3118800BF7B6B18463837BD46C5
:1024300080BD000080B58EB000AF786039600023A9
:102440007B637B68FB6200233B63FB6A002B0AD142
:102450004FF0500383F31188BFF36F8FBFF34F8F9B
:102460003B6200BFFEE7FB6A1B6C002B0AD04FF0FB
:10247000500383F31188BFF36F8FBFF34F8FFB615E
:1024800000BFFEE701F07AF80346002B02D13B685B
:10249000002B01D1012300E00023002B0AD14FF0D3
:1024A000500383F31188BFF36F8FBFF34F8FBB616E
:1024B00000BFFEE701F09AFBFB6A9B6BBB62BB6A45
:1024C000002B24D0BB6A5A1EFB6A9A63FB6A1B6806
:1024D000002B04D101F01CFA0246FB6A5A60FB6A29
:1024E0001B69002B0FD0FB6A1033184600F082FEE8
:1024F0000346002B07D0544B4FF080521A60BFF3B5
:102500004F8FBFF36F8F01F0A1FB012397E03B6872
:10251000002B11D13B6B002B0AD04FF0500383F3FB
:102520001188BFF36F8FBFF34F8F7B6100BFFEE752
:1025300001F08CFB002382E07B6B002B06D107F1BE
:102540000C03184600F0B8FE01237B6301F07EFB0C
:1025500000F062FC01F04AFBFB6A93F844305BB286
:10256000B3F1FF3F03D1FB6A002283F84420FB6AEA
:1025700093F845305BB2B3F1FF3F03D1FB6A002211
:1025800083F8452001F062FB3A4607F10C0311463F
:10259000184600F0A7FE0346002B32D1F86A00F07F
:1025A000CEF90346002B26D0FB6A1B68002B09D10D
:1025B00001F01CFBFB6A5B68184600F0FDFF386306
:1025C00001F044FBFB6A24333A681146184600F0D8
:1025D000EDFDF86A00F061F900F02CFC0346002BD9
:1025E0007FF468AF184B4FF080521A60BFF34F8FE3
:1025F000BFF36F8F5EE7F86A00F04FF900F01AFC46
:1026000058E7F86A00F049F900F014FCF86A00F0A5
:1026100096F90346002B3FF44DAF3B6B002B0DD0DA
:1026200001F0E4FAF86A00F091F87862FB6A5B68FE
:10263000796A184601F0CCF801F008FB002318462F
:102640003837BD4680BD00BF04ED00E080B58EB0D8
:1026500000AFF860B9607A60FB683B633B6B002BAE
:102660000AD14FF0500383F31188BFF36F8FBFF38C
:102670004F8F3B6200BFFEE7BB68002B03D13B6B73
:102680001B6C002B01D1012300E00023002B0AD199
:102690004FF0500383F31188BFF36F8FBFF34F8F59
:1026A000FB6100BFFEE701F063FBEFF311824FF027
:1026B000500383F31188BFF36F8FBFF34F8FBA615D
:1026C0007B61BB69FB623B6B9B6BBB62BB6A002B94
:1026D0002FD03B6B93F8443087F82730B968386BBC
:1026E00000F0B5F8BB6A5A1E3B6B9A6397F9273026
:1026F000B3F1FF3F12D13B6B1B69002B16D03B6B34
:102700001033184600F076FD0346002B0ED07B6890
:10271000002B0BD07B6801221A6007E097F8273066
:102720000133DBB25AB23B6B83F8442001237B6355
:1027300001E000237B63FB6A3B613B6983F3118803
:1027400000BF7B6B18463837BD4680BD80B485B06E
:1027500000AF78607B685B6A002B06D07B681B6BE0
:102760001B68C3F10703FB6001E00023FB60FB680B
:1027700018461437BD4680BC704780B586B000AFA0
:10278000F860B9607A6000237B61FB689B6B3B61FA
:10279000FB681B6C002B0DD1FB681B68002B4DD117
:1027A000FB685B68184600F08DFF7861FB680022CB
:1027B0005A6043E07B68002B19D1FB689868FB687E
:1027C0001B6C1A46B96801F0FDFCFB689A68FB684F
:1027D0001B6C1A44FB689A60FB689A68FB685B682C
:1027E0009A422BD3FB681A68FB689A6026E0FB6864
:1027F000D868FB681B6C1A46B96801F0E3FCFB68FB
:10280000DA68FB681B6C5B421A44FB68DA60FB68A1
:10281000DA68FB681B689A4207D2FB685A68FB6853
:102820001B6C5B421A44FB68DA607B68022B05D1A3
:102830003B69002B02D03B69013B3B613B695A1C61
:10284000FB689A637B6918461837BD4680BD80B522
:1028500082B000AF786039607B681B6C002B18D0A9
:102860007B68DA687B681B6C1A447B68DA607B687B
:10287000DA687B685B689A4203D37B681A687B6876
:10288000DA607B68D9687B681B6C1A46386801F08F
:1028900099FC00BF0837BD4680BD80B584B000AF4D
:1028A000786001F0A3F97B6893F84530FB7311E081
:1028B0007B685B6A002B12D07B682433184600F0DB
:1028C00099FC0346002B01D000F06EFDFB7B013B21
:1028D000DBB2FB7397F90F30002BE9DC00E000BF9F
:1028E0007B68FF2283F8452001F0B0F901F07EF902
:1028F0007B6893F84430BB7311E07B681B69002B45
:1029000012D07B681033184600F074FC0346002B8D
:1029100001D000F049FDBB7B013BDBB2BB7397F9F3
:102920000E30002BE9DC00E000BF7B68FF2283F85B
:10293000442001F08BF900BF1037BD4680BD80B543
:1029400084B000AF786001F051F97B689B6B002B7D
:1029500002D10123FB6001E00023FB6001F076F966
:10296000FB6818461037BD4680BD80B584B000AF07
:10297000786001F03BF97B689A6B7B68DB6B9A426D
:1029800002D10123FB6001E00023FB6001F05EF94E
:10299000FB6818461037BD4680BD80B58EB004AFC9
:1029A000F860B9607A603B607B6B002B0AD14FF016
:1029B000500383F31188BFF36F8FBFF34F8F3B62D8
:1029C00000BFFEE7BB6B002B0AD14FF0500383F32F
:1029D0001188BFF36F8FBFF34F8FFB6100BFFEE71E
:1029E000B4233B613B69B42B0AD04FF0500383F30F
:1029F0001188BFF36F8FBFF34F8FBB6100BFFEE73E
:102A0000BB6B002B1ED07B6B002B1BD0BB6B7B6288
:102A10007B6A7A6B1A637B6A022283F8B1200023F7
:102A200003937B6A029307F1140301933B6B0093BA
:102A30003B687A68B968F86800F050F8786A00F086
:102A4000E3F801E000237B617B6918462837BD4627
:102A500080BD80B58CB004AFF860B9603B601346B0
:102A6000FB80FB889B00184601F0AEF978617B691A
:102A7000002B0ED0B42001F0A7F9F861FB69002B00
:102A800003D0FB697A691A6305E0786901F060FA9E
:102A900001E00023FB61FB69002B17D0FB690022DA
:102AA00083F8B120FA8800230393FB690293FB6A41
:102AB0000193BB6A00933B68B968F86800F00EF8B0
:102AC000F86900F0A1F80123BB6102E04FF0FF3389
:102AD000BB61BB6918462037BD4680BD80B588B054
:102AE00000AFF860B9607A603B603B6B1A6B7B6843
:102AF00003F18043013B9B001344BB61BB6923F09E
:102B00000703BB61BB6903F00703002B0AD04FF03A
:102B1000500383F31188BFF36F8FBFF34F8F7B6137
:102B200000BFFEE70023FB6112E0BA68FB691344B3
:102B300019783A6BFB69134434330A461A70BA6841
:102B4000FB6913441B78002B06D0FB690133FB6142
:102B5000FB690F2BE9D900E000BF3B6B002283F833
:102B60004320BB6A062B01D90623BB623B6BBA6AC2
:102B7000DA623B6BBA6A5A643B6B00229A643B6B25
:102B800004331846FFF793F83B6B18331846FFF7EA
:102B90008EF83B6B3A6B1A61BB6AC3F107023B6B61
:102BA0009A613B6B3A6B5A623B6B0022C3F8AC20D4
:102BB0003B6B002283F8B0203B6B4C33602200213A
:102BC000184601F00DFB3B6B0C4A1A653B6B0C4A37
:102BD0005A653B6B0B4A9A653A68F968B86900F028
:102BE00011FF02463B6B1A60FB6A002B02D0FB6AA6
:102BF0003A6B1A6000BF2037BD4680BDD84400083C
:102C0000F8440008B844000880B582B000AF78608E
:102C100000F0ECFF2A4B1B680133294A1360294B53
:102C20001B68002B09D1274A7B681360244B1B6863
:102C3000012B10D100F0DCFB0DE0234B1B68002BB7
:102C400009D1204B1B68DA6A7B68DB6A9A4202D89A
:102C50001C4A7B6813601D4B1B6801331B4A1360C1
:102C60007B68DB6A01229A40194B1B681343184AA0
:102C700013607B68DA6A13469B0013449B00154A75
:102C80001A447B68043319461046FFF71CF800F01D
:102C9000DDFF0D4B1B68002B0ED00A4B1B68DA6A58
:102CA0007B68DB6A9A4207D20B4B4FF080521A6066
:102CB000BFF34F8FBFF36F8F00BF0837BD4680BD96
:102CC00050040020500300205C0400206C0400200D
:102CD000580400205403002004ED00E080B584B0C7
:102CE00000AF78600023FB607B68002B17D0134B8C
:102CF0001B68002B0AD04FF0500383F31188BFF3F9
:102D00006F8FBFF34F8FBB6000BFFEE700F084F80A
:102D10000021786800F010FE00F08CF8F860FB6885
:102D2000002B07D1064B4FF080521A60BFF34F8F34
:102D3000BFF36F8F00BF1037BD4680BD7804002001
:102D400004ED00E080B58AB004AF0023BB6000232F
:102D50007B603A46391D07F108031846FEF7B2F8C2
:102D600039687B68BA6802920193002300930023BC
:102D70000A4621492148FFF710FE0346204A136006
:102D80001F4B1B68002B02D001237B6101E0002355
:102D90007B617B69012B1BD14FF0500383F31188BA
:102DA000BFF36F8FBFF34F8F3B6100BF154B1B68A5
:102DB0004C33154A1360154B4FF0FF321A60144B19
:102DC00001221A60134B00221A6000F09DFE0EE0F3
:102DD0007B69B3F1FF3F0AD14FF0500383F31188B1
:102DE000BFF36F8FBFF34F8FFB6000BFFEE700BFE5
:102DF0001837BD4680BD00BFB0440008C13300088D
:102E000074040020500300201C00002070040020E7
:102E10005C0400205404002080B400AF044B1B6805
:102E20000133034A136000BFBD4680BC704700BF3A
:102E30007804002080B584B000AF0023FB6000233D
:102E4000BB60414B1B68002B0AD14FF0500383F34A
:102E50001188BFF36F8FBFF34F8F3B6000BFFEE75A
:102E600000F0C4FE384B1B68013B374A1360364BF9
:102E70001B68002B61D1354B1B68002B5DD02EE009
:102E8000334BDB68DB68FB60FB6818331846FEF7E2
:102E900075FFFB6804331846FEF770FFFB68DB6ABA
:102EA00001229A402B4B1B6813432A4A1360FB688C
:102EB000DA6A13469B0013449B00274A1A44FB68B6
:102EC000043319461046FEF7FEFEFB68DA6A234B10
:102ED0001B68DB6A9A4202D3214B01221A601C4B09
:102EE0001B68002BCCD1FB68002B01D000F022FB2B
:102EF0001C4B1B687B607B68002B10D000F036F801
:102F00000346002B02D0164B01221A607B68013B5E
:102F10007B607B68002BF1D1124B00221A60104BB2
:102F20001B68002B09D00123BB600F4B4FF0805270
:102F30001A60BFF34F8FBFF36F8F00F087FEBB683F
:102F400018461037BD4680BD78040020500400208C
:102F500010040020580400205403002050030020D7
:102F6000640400206004002004ED00E080B586B019
:102F700000AF00237B61514B1B68002B40F08D801C
:102F80004F4B1B6801333B614D4A3B6913603B6902
:102F9000002B20D14B4B1B681B68002B0AD04FF035
:102FA000500383F31188BFF36F8FBFF34F8F3B60E4
:102FB00000BFFEE7434B1B68FB60434B1B68414A65
:102FC0001360414AFB681360404B1B6801333F4A62
:102FD000136000F0AFFA3E4B1B683A699A424DD33A
:102FE000384B1B681B68002B01D1012300E0002334
:102FF000002B04D0364B4FF0FF321A603EE0314BCD
:103000001B68DB68DB68BB60BB685B687B603A6938
:103010007B689A4203D22E4A7B6813602EE0BB681D
:1030200004331846FEF7AAFEBB689B6A002B04D047
:10303000BB6818331846FEF7A1FEBB68DB6A0122A5
:103040009A40244B1B681343224A1360BB68DA6A18
:1030500013469B0013449B001F4A1A44BB68043369
:1030600019461046FEF72FFEBB68DA6A1B4B1B6839
:10307000DB6A9A42B4D301237B61B1E7174B1B682B
:10308000DA6A154913469B0013449B000B441B68E6
:10309000012B07D901237B6104E0114B1B6801332D
:1030A0000F4A13600F4B1B68002B01D001237B617B
:1030B0007B6918461837BD4680BD00BF78040020E4
:1030C00054040020080400200C04002068040020A0
:1030D00070040020580400205403002050030020F6
:1030E000600400206404002080B487B000AF294B46
:1030F0001B68002B03D0284B01221A6044E0264BAA
:1031000000221A60254B1B68FB60FB68B3FA83F34F
:10311000FB72FB7AC3F11F037B6121497A69134675
:103120009B0013449B000B441B68002B0AD14FF0FB
:10313000500383F31188BFF36F8FBFF34F8F7B6012
:1031400000BFFEE77A6913469B0013449B00144AB4
:1031500013443B613B695B685A683B695A603B6951
:103160005A683B6908339A4204D13B695B685A68E4
:103170003B695A603B695B68DB680A4A1360094B2C
:103180001B684C33084A136000BF1C37BD4680BC27
:10319000704700BF78040020640400205804002019
:1031A00054030020500300201C00002080B584B090
:1031B00000AF786039607B68002B0AD14FF0500374
:1031C00083F31188BFF36F8FBFF34F8FFB6000BF96
:1031D000FEE7074B1B68183319467868FEF796FD23
:1031E0000121386800F0A8FB00BF1037BD4680BD44
:1031F0005003002080B586B000AF78607B68DB6844
:10320000DB683B613B69002B0AD14FF0500383F32D
:103210001188BFF36F8FBFF34F8FFB6000BFFEE7D6
:103220003B6918331846FEF7A9FD1D4B1B68002BA0
:103230001CD13B6904331846FEF7A0FD3B69DB6AED
:1032400001229A40174B1B681343164A13603B69CF
:10325000DA6A13469B0013449B00134A1A443B69E5
:10326000043319461046FEF72EFD05E03B6918337E
:1032700019460E48FEF727FD3B69DA6A0C4B1B68BE
:10328000DB6A9A4205D901237B610A4B01221A604D
:1032900001E000237B617B6918461837BD4680BD7D
:1032A000780400205804002054030020100400205B
:1032B000500300206404002080B483B000AF786025
:1032C000064B1A687B681A60054B1A687B685A605F
:1032D00000BF0C37BD4680BC704700BF68040020AB
:1032E0005404002080B588B000AF786039607B68F6
:1032F000002B0AD14FF0500383F31188BFF36F8F77
:10330000BFF34F8F3B6100BFFEE73B68002B0AD144
:103310004FF0500383F31188BFF36F8FBFF34F8FCC
:10332000FB6000BFFEE700F061FC1D4B1B68BB614A
:103330007B685B68BA69D31A7B613B681B68B3F131
:10334000FF3F02D10023FB6123E07B681A68154B25
:103350001B689A4207D07B685B68BA699A4202D3BD
:103360000123FB6115E03B681B687A699A420BD226
:103370003B681A687B69D21A3B681A607868FFF765
:103380009BFF0023FB6104E03B6800221A600123DD
:10339000FB6100F05BFCFB6918462037BD4680BD31
:1033A000540400206804002080B400AF034B0122C5
:1033B0001A6000BFBD4680BC704700BF6404002097
:1033C00080B582B000AF786000F052F8064B1B6801
:1033D000012BF9D9054B4FF080521A60BFF34F8F84
:1033E000BFF36F8FF0E700BF5403002004ED00E04F
:1033F00080B582B000AF00237B600CE07A68134692
:103400009B0013449B00124A13441846FEF730FCFD
:103410007B6801337B607B68062BEFD90D48FEF794
:1034200027FC0D48FEF724FC0C48FEF721FC0C4855
:10343000FEF71EFC0B48FEF71BFC0B4B054A1A60FF
:103440000A4B054A1A6000BF0837BD4680BD00BF61
:1034500054030020E0030020F403002010040020A7
:10346000240400203C040020080400200C04002058
:1034700080B582B000AF19E000F0B8FB104BDB68FC
:10348000DB687B607B6804331846FEF777FC0D4BE6
:103490001B68013B0B4A13600B4B1B68013B0A4A3C
:1034A000136000F0D3FB786800F010F8064B1B683F
:1034B000002BE1D100BF00BF0837BD4680BD00BF73
:1034C00024040020500400203804002080B584B07B
:1034D00000AF78607B684C33184600F097FE7B683D
:1034E00093F8B130002B08D17B681B6B184600F0B5
:1034F0002FFD786800F02CFD18E07B6893F8B13060
:10350000012B03D1786800F023FD0FE07B6893F86E
:10351000B130022B0AD04FF0500383F31188BFF370
:103520006F8FBFF34F8FFB6000BFFEE700BF103708
:10353000BD4680BD80B483B000AF0E4B1B681B68D6
:10354000002B01D1012300E00023002B04D00A4B03
:103550004FF0FF321A6008E0064B1B68DB68DB683F
:103560007B607B685B68044A136000BF0C37BD4614
:1035700080BC7047080400207004002080B483B031
:1035800000AF0B4B1B68002B02D101237B6008E0CE
:10359000084B1B68002B02D102237B6001E0002353
:1035A0007B607B6818460C37BD4680BC704700BF07
:1035B0005C0400207804002080B584B000AF7860FF
:1035C0007B68BB600023FB607B68002B6ED0BB6810
:1035D000DA6A394B1B68DB6A9A425ED2BB689B6928
:1035E000002B06DB344B1B68DB6AC3F10702BB68A8
:1035F0009A61BB685969BB68DA6A13469B00134439
:103600009B002E4A1344994201D1012300E000237C
:10361000002B3AD0BB6804331846FEF7AFFB0346D5
:10362000002B15D1BB68DA6A244913469B0013446A
:103630009B000B441B68002B0AD1BB68DB6A01228C
:1036400002FA03F3DA431E4B1B6813401C4A136053
:10365000194B1B68DA6ABB68DA62BB68DB6A012255
:103660009A40174B1B681343154A1360BB68DA6A0C
:1036700013469B0013449B00104A1A44BB68043352
:1036800019461046FEF71FFB04E00B4B1B68DA6A75
:10369000BB68DA620123FB6008E0BB685A6C064B2A
:1036A0001B68DB6A9A4201D20123FB60FB68184663
:1036B0001037BD4680BD00BF5003002054030020DA
:1036C0005804002080B586B000AF78607B683B610D
:1036D00000237B617B68002B6ED03A4B1B683A69F4
:1036E0009A420AD04FF0500383F31188BFF36F8FD3
:1036F000BFF34F8FFB6000BFFEE73B699B6C002B65
:103700000AD14FF0500383F31188BFF36F8FBFF3DB
:103710004F8FBB6000BFFEE73B699B6C5A1E3B6945
:103720009A643B69DA6A3B695B6C9A4244D03B69B4
:103730009B6C002B40D13B6904331846FEF71EFBFF
:103740000346002B15D13B69DA6A1F4913469B00DB
:1037500013449B000B441B68002B0AD13B69DB6AB6
:10376000012202FA03F3DA43184B1B681340174A8D
:1037700013603B695A6C3B69DA623B69DB6AC3F1EF
:1037800007023B699A613B69DB6A01229A400F4B51
:103790001B6813430D4A13603B69DA6A13469B00AA
:1037A00013449B00084A1A443B69043319461046E7
:1037B000FEF789FA01237B617B6918461837BD46FD
:1037C00080BD00BF50030020540300205804002097
:1037D00080B588B000AF786039607B68BB61012339
:1037E0007B617B68002B00F08880BB699B6C002BA1
:1037F0000AD14FF0500383F31188BFF36F8FBFF3EB
:103800004F8FFB6000BFFEE7BB695B6C3A689A4272
:1038100002D93B68FB6102E0BB695B6CFB61BB6981
:10382000DB6AFA699A4268D0BB699B6C7A699A42F2
:1038300063D1344B1B68BA699A420AD14FF05003E6
:1038400083F31188BFF36F8FBFF34F8FBB6000BF4F
:10385000FEE7BB69DB6A3B61BB69FA69DA62BB6997
:103860009B69002B04DBFB69C3F10702BB699A610A
:10387000BB6959693A6913469B0013449B00224A6D
:103880001344994201D1012300E00023002B34D0DE
:10389000BB6904331846FEF771FA0346002B15D1B5
:1038A000BB69DA6A184913469B0013449B000B441A
:1038B0001B68002B0AD1BB69DB6A012202FA03F301
:1038C000DA43124B1B681340104A1360BB69DB6A72
:1038D00001229A400D4B1B6813430C4A1360BB69CD
:1038E000DA6A13469B0013449B00074A1A44BB69DB
:1038F000043319461046FEF7E6F900BF2037BD46EF
:1039000080BD00BF50030020540300205804002055
:1039100080B400AF074B1B68002B04D0054B1B681D
:103920009A6C01329A64034B1B681846BD4680BCF2
:10393000704700BF5003002080B584B000AF7860AE
:103940003960294B1B68FB60284B1B680433184601
:10395000FEF714FA0346002B0BD1244B1B68DB6ADD
:10396000012202FA03F3DA43214B1B681340204A79
:1039700013607B68B3F1FF3F0AD13B68002B07D08F
:103980001A4B1B68043319461A48FEF79CF926E0C7
:10399000FA687B681344BB60144B1B68BA685A60B2
:1039A000BA68FB689A4209D2134B1A680F4B1B681E
:1039B000043319461046FEF7A9F910E00F4B1A68B8
:1039C0000A4B1B68043319461046FEF79FF90C4B4F
:1039D0001B68BA689A4202D2094ABB68136000BFEA
:1039E0001037BD4680BD00BF5404002050030020A6
:1039F000580400203C0400200C040020080400208F
:103A00007004002080B485B000AFF860B9607A60BF
:103A1000FB68043BFB60FB684FF080721A60FB6838
:103A2000043BFB60BB6823F00102FB681A60FB6883
:103A3000043BFB60084AFB681A60FB68143BFB60B0
:103A40007A68FB681A60FB68203BFB60FB681846DD
:103A50001437BD4680BC70475D3A000880B485B01D
:103A600000AF00237B60124B1B68B3F1FF3F0AD00D
:103A70004FF0500383F31188BFF36F8FBFF34F8F65
:103A8000FB6000BFFEE74FF0500383F31188BFF3E4
:103A90006F8FBFF34F8FBB6000BF00BF7B68002BF1
:103AA000FCD000BF00BF1437BD4680BC704700BFCC
:103AB00018000020000000000000000000000000CE
:103AC000074B19680868B0E8F00F80F30988BFF366
:103AD0006F8F4FF0000080F311884EF00D0E70478D
:103AE0005003002000BF00BF06480068006880F354
:103AF000088862B661B6BFF34F8FBFF36F8F00DFE8
:103B000000BF00BF08ED00E080B584B000AF324BCD
:103B1000FB60FB681B78DBB27B60FB68FF221A70DE
:103B2000FB681B78DBB2FB70FB78DBB203F0500361
:103B3000DAB22A4B1A702A4B07221A6009E0284B86
:103B40001B68013B264A1360FB78DBB25B00DBB2EB
:103B5000FB70FB78DBB203F08003802BEFD0204BAF
:103B60001B68C3F10703042B0AD04FF0500383F303
:103B70001188BFF36F8FBFF34F8FBB6000BFFEE7AD
:103B8000174B1B681B02164A1360154B1B6803F486
:103B9000E063134A13607B68DAB2FB681A70114B5A
:103BA0001B68104A43F4700313600E4B1B680D4AE8
:103BB00043F07043136000F0B9F80B4B00221A6019
:103BC000FFF792FFFFF790FAFFF748FF0023184630
:103BD0001037BD4680BD00BF00E400E07C0400203B
:103BE0008004002020ED00E01800002080B483B0A5
:103BF00000AF4FF0500383F31188BFF36F8FBFF313
:103C00004F8F7B6000BF0F4B1B6801330D4A136061
:103C10000C4B1B68012B0FD10B4B1B68DBB2002B2D
:103C20000AD04FF0500383F31188BFF36F8FBFF3B7
:103C30004F8F3B6000BFFEE700BF0C37BD4680BC26
:103C4000704700BF1800002004ED00E080B483B08E
:103C500000AF114B1B68002B0AD14FF0500383F3C8
:103C60001188BFF36F8FBFF34F8F7B6000BFFEE7FC
:103C7000094B1B68013B084A1360074B1B68002B6C
:103C800005D100233B603B6883F3118800BF00BF70
:103C90000C37BD4680BC70471800002000000000B3
:103CA000EFF30980BFF36F8F0D4B1A6820E9F00F17
:103CB00010602DE908404FF0500080F31188FFF7A5
:103CC00013FA4FF0000080F31188BDE8084019682E
:103CD0000868B0E8F00F80F30988BFF36F8F704772
:103CE0005003002000BF00BF80B582B000AF4FF08E
:103CF000500383F31188BFF36F8FBFF34F8F7B6047
:103D000000BFFFF733F90346002B03D0064B4FF0FB
:103D100080521A6000233B603B6883F3118800BF28
:103D200000BF0837BD4680BD04ED00E080B400AFA1
:103D30000A4B00221A600A4B00221A60094B1B68CA
:103D4000094AA2FB03239B09084A013B1360034B6A
:103D500007221A6000BFBD4680BC704710E000E03B
:103D600018E000E010000020D34D621014E000E0E5
:103D700080B485B000AFEFF30583FB60FB680F2BC9
:103D800004D90E4AFB6813441B78FB720C4B1B686A
:103D900003F4E0620B4B1B689A420AD94FF05003C0
:103DA00083F31188BFF36F8FBFF34F8F7B6000BF2A
:103DB000FEE700BF1437BD4680BC7047F0E300E06B
:103DC0000CED00E08004002080B58AB000AF786080
:103DD0000023FB61FFF720F8584B1B68002B01D133
:103DE00000F010F9564B1A687B681340002B40F026
:103DF0008E807B68002B1DD008227B6813447B607B
:103E00007B6803F00703002B14D07B6823F00703C3
:103E100008337B607B6803F00703002B0AD04FF068
:103E2000500383F31188BFF36F8FBFF34F8F7B6114
:103E300000BFFEE77B68002B69D0424B1B687A68A5
:103E40009A4264D8404B3B623F4B1B687B6204E064
:103E50007B6A3B627B6A1B687B627B6A5B687A6811
:103E60009A4203D97B6A1B68002BF1D1334B1B6844
:103E70007A6A9A424BD03B6A1B6808221344FB6162
:103E80007B6A1A683B6A1A607B6A5A687B68D21A36
:103E900008235B009A421FD97A6A7B681344BB618E
:103EA000BB6903F00703002B0AD04FF0500383F3E4
:103EB0001188BFF36F8FBFF34F8F3B6100BFFEE7E9
:103EC0007B6A5A687B68D21ABB695A607B6A7A68D7
:103ED0005A60B86900F0F8F81A4B1A687B6A5B6898
:103EE000D31A184A1360174B1A68184B1B689A426A
:103EF00003D2144B1B68154A13607B6A5A68104B37
:103F00001B681A437B6A5A607B6A00221A60FEF7BC
:103F100091FFFB6903F00703002B0AD04FF0500319
:103F200083F31188BFF36F8FBFF34F8FFB6000BF28
:103F3000FEE7FB6918462837BD4680BD8C1000207F
:103F40009810002090100020841000209410002071
:103F500080B586B000AF78607B687B617B68002BA2
:103F600048D008235B427A6913447B617B693B61DB
:103F70003B695A68214B1B681340002B0AD14FF054
:103F8000500383F31188BFF36F8FBFF34F8FFB6034
:103F900000BFFEE73B691B68002B0AD04FF05003BF
:103FA00083F31188BFF36F8FBFF34F8FBB6000BFE8
:103FB000FEE73B695A68114B1B681340002B19D070
:103FC0003B691B68002B15D13B695A680B4B1B687A
:103FD000DB431A403B695A60FEF71EFF3B695A6893
:103FE000074B1B681344064A1360386900F06CF8ED
:103FF000FEF720FF00BF1837BD4680BD9810002097
:104000009010002080B485B000AF4FF44063BB60D7
:10401000274BFB60FB6803F00703002B0CD0FB6809
:104020000733FB60FB6823F00703FB60BA68FB689B
:10403000D31A1F4A1344BB60FB687B601D4A7B6830
:1040400013601C4B00225A607B68BA681344FB6003
:104050000822FB689B1AFB60FB6823F00703FB60E8
:10406000FB68154A1360144B1B6800225A60124B00
:104070001B6800221A607B683B603B68FA68D21AB2
:104080003B685A600C4B1A683B681A603B685B6877
:104090000A4A13603B685B68094A1360094B4FF09A
:1040A00000421A6000BF1437BD4680BC704700BF95
:1040B00084040020841000208C1000209410002024
:1040C000901000209810002080B485B000AF786078
:1040D000274BFB6002E0FB681B68FB60FB681B680A
:1040E0007A689A42F7D8FB68BB60FB685B68BA687D
:1040F00013447A689A4208D1FB685A687B685B6807
:104100001A44FB685A60FB687B607B68BB607B6815
:104110005B68BA681A44FB681B689A4218D1FB684E
:104120001A68144B1B689A420DD07B685A68FB686A
:104130001B685B681A447B685A60FB681B681A68D6
:104140007B681A6008E00B4B1A687B681A6003E012
:10415000FB681A687B681A60FA687B689A4202D02A
:10416000FB687A681A6000BF1437BD4680BC704790
:10417000841000208C10002070B500260C4D0D4CD2
:10418000641BA410A64209D100F00CF900260A4DC8
:104190000A4C641BA410A64205D170BD55F8043B1F
:1041A00098470136EEE755F8043B98470136F2E7A9
:1041B0001845000818450008184500081C45000867
:1041C000704770470A44914200F1FF3300D17047B5
:1041D00010B511F8014B914203F8014FF9D110BD10
:1041E00003460244934200D1704703F8011BF9E7EC
:1041F00038B50C460968054609B1FFF7F9FF2146B5
:104200002846BDE8384000F081B800002C4B70B55E
:104210001B680446834251D0436A43B1DB68002BDC
:104220004AD1636A196811B1204600F06FF86169DC
:1042300011B1204600F06AF8616A11B1204600F021
:1042400065F8A16B11B1204600F060F8E16B11B187
:10425000204600F05BF8216C11B1204600F056F8C2
:10426000E16D11B1204600F051F8A16D11B1204669
:1042700000F04CF8616B11B1204600F047F8A369DB
:10428000E3B12046A36A9847A16CB9B12046BDE8C6
:104290007040FFF7ADBF495941B90435636A802DBD
:1042A000D968F8D1204600F031F8BAE70E68204608
:1042B00000F02CF83146EFE70025EFE770BD00BFB6
:1042C0001C000020F0B50C7864B103461A7818463B
:1042D0005E1C0AB9104605E0944208D10D4615F857
:1042E000012F02B9F0BD13F8017F9742F7D0334692
:1042F000ECE700000148FFF763BF00BF8C1200200D
:104300000148FFF75EBF00BF8C12002038B505469C
:10431000002943D051F8043C0C1F002BB8BFE4180F
:10432000FFF7E8FF1E4A1368104633B96360146054
:104330002846BDE83840FFF7E3BFA3420AD9216809
:104340006218934201BF1A685B685218226063606A
:104350000460EDE71A465B680BB1A342FAD9116815
:104360005018A0420BD120680144501883421160BC
:10437000DED118685B68014411605360D8E702D948
:104380000C232B60D4E7206821188B4201BF1968E9
:104390005B680918216063605460C9E738BD00BFDD
:1043A0009C100020F8B500BFF8BC08BC9E467047C2
:0C43B000F8B500BFF8BC08BC9E46704782
:1043BC00003801400044004000480040004000002C
:1043CC000000020000000400090A02030A0B0000AE
:1043DC00181002401C1002401C1002400101020087
:1043EC00252627000408100008080140080C01408D
:1043FC00081001400C0801400C0C01400C1001404D
:10440C005461736B310000005461736B3200000017
:10441C004800000048656C6C6F772066726F6D20E9
:10442C005541525420310A000C440008D5130008A1
:10443C0000000000000000008000000000000000F0
:10444C00000000001444000859140008010000008A
:10445C0000000000800000000000000000000000D0
:10446C005455524E4F4646005455524E4F4E000036
:10447C00414C45525421000041540D004F4B0D004E
:10448C004154264B300D000041542B5342444958A3
:10449C000D00000041542B53424457543D00000082
:1044AC000D00000049444C450000000000000000D5
:1044BC0000000000000000000000000000000000F0
:1044CC0000000000000000000000000000000000E0
:1044DC0000000000000000000000000000000000D0
:1044EC0000000000000000000000000000000000C0
:1044FC0000000000000000000000000000000000B0
:0C450C00000000000000000000000000A3
:044518003501000861
:04451C001101000881
:1045200000000000000000000A0000000000000081
:104530000024F40001000000AAAAAAAA200000207A
:1045400000000000D8440008F8440008B8440008FF
:10455000000000000000000000000000000000005B
:10456000000000000000000000000000000000004B
:10457000000000000000000000000000000000003B
:10458000000000000000000000000000000000002B
:10459000000000000000000000000000000000001B
:04000005080016E1F8
:00000001FF
