:020000040800F2
:10000000005000208D0300083D0300084303000852
:10001000490300084F0300085503000800000000D2
:100020000000000000000000000000005B0300086A
:10003000670300080000000073030008D5030008F0
:10004000D5030008D5030008D5030008D503000830
:10005000D5030008D5030008D5030008D503000820
:10006000D5030008D5030008D5030008D503000810
:10007000D5030008D5030008D5030008D503000800
:10008000D5030008D5030008D5030008D5030008F0
:10009000D5030008D5030008D5030008D5030008E0
:1000A000D5030008D5030008D5030008D5030008D0
:1000B000D5030008D5030008D5030008D5030008C0
:1000C000D5030008D5030008D5030008D5030008B0
:1000D000D5030008D5030008D5030008D5030008A0
:1000E000D5030008D5030008D50300080000000070
:1000F0000000000000000000000000000000000000
:0C01000000000000000000005FF808F1A3
:10010C0010B5054C237833B9044B13B10448AFF345
:10011C0000800123237010BD0400002000000000AB
:10012C002004000808B5034B1BB103490348AFF387
:10013C00008008BD0000000008000020200400081A
:10014C0080B400AF074B5B69064A43F04003536130
:10015C00054B9B68044A43F00103936000BFBD4606
:10016C0080BC7047001002400030024080B483B065
:10017C0000AF7860064B01229A60054A7B681360D9
:10018C00034B1B6818460C37BD4680BC704700BF3C
:10019C000030024080B485B000AF786039600D4B00
:1001AC0001229A600023FB6009E0FB689B007A68DF
:1001BC001344084A1B681360FB680133FB60FB683F
:1001CC003A689A42F1D8034B1B6818461437BD465F
:1001DC0080BC70470030024080B483B000AF03464F
:1001EC003960FB7197F90730002B0ADB3B68DAB2F8
:1001FC000C4997F907301201D2B20B4483F8002353
:10020C000AE03B68DAB20849FB7903F00F03043BC0
:10021C001201D2B20B441A7600BF0C37BD4680BC1B
:10022C00704700BF00E100E000ED00E080B582B057
:10023C0000AF78607B68013BB3F1807F01D3012371
:10024C000FE00A4A7B68013B53600F214FF0FF30EF
:10025C00FFF7C2FF054B00229A60044B07221A607D
:10026C00002318460837BD4680BD00BF10E000E0F3
:10027C0090B58FB000AF2B4B1B682B4AA2FB03230E
:10028C009B091846FFF7D2FFFFF75AFFC1233B63C8
:10029C00264B07F11C040FCB84E80F00386BFFF7DB
:1002AC0065FF0346FB623B6B7B61FB6ABB6107F13D
:1002BC00140302211846FFF76DFF0346FB6207F19A
:1002CC001C0304211846FFF765FF0346FB6200235D
:1002DC007B6310E07B6B9B0007F13802134453F8EF
:1002EC001C2C7B6B9B0007F138010B4443F8382C1A
:1002FC007B6B01337B637B6B032BEBD97B6B5A1CC6
:10030C007A63FA6A9B0007F138010B4443F8382CE6
:10031C007A6B3B4611461846FFF73CFF0346FB62DF
:10032C00BCE700BF00000020D34D62103804000869
:10033C0080B400AFFEE780B400AFFEE780B400AF3E
:10034C00FEE780B400AFFEE780B400AFFEE780B4F8
:10035C0000AF00BFBD4680BC704780B400AF00BF8B
:10036C00BD4680BC704780B400AF00BFBD4680BCAA
:10037C00704780B400AF00BFBD4680BC7047000022
:10038C000C480D490D4A002302E0D458C4500433E4
:10039C00C4188C42F9D30A4A0A4C002301E01360BA
:1003AC000432A242FBD3FFF7E4FF00F00FF8FFF793
:1003BC005FFF70470000002004000020500400087C
:1003CC000400002020000020FEE7000070B500268D
:1003DC000C4D0D4C641BA410A64209D100F01AF868
:1003EC0000260A4D0A4C641BA410A64205D170BD10
:1003FC0055F8043B98470136EEE755F8043B98470F
:10040C000136F2E7480400084804000848040008D4
:10041C004C040008F8B500BFF8BC08BC9E467047F9
:0C042C00F8B500BFF8BC08BC9E46704745
:100438004100000020000000FF0000001000000044
:040448003101000876
:04044C000D01000896
:040450000024F40090
:040000050800038D5F
:00000001FF
