:020000040800F2
:100000000050002015020008B9010008BF010008D7
:10001000C5010008CB010008D10100080000000064
:10002000000000000000000000000000D7010008F0
:10003000E301000800000000EF010008FB010008D8
:100040005D0200085D0200085D0200085D02000814
:100050005D0200085D0200085D0200085D02000804
:100060005D0200085D0200085D0200085D020008F4
:100070005D0200085D0200085D0200085D020008E4
:100080005D0200085D0200085D0200085D020008D4
:100090005D0200085D0200085D0200085D020008C4
:1000A0005D0200085D0200085D0200085D020008B4
:1000B0005D0200085D0200085D0200085D020008A4
:1000C0005D0200085D0200085D0200085D02000894
:1000D0005D0200085D0200085D0200085D02000884
:1000E0005D0200085D0200085D02000800000000DB
:1000F0000000000000000000000000000000000000
:0C01000000000000000000005FF808F1A3
:10010C0010B5054C237833B9044B13B10448AFF345
:10011C0000800123237010BD0400002000000000AB
:10012C00CC02000808B5034B1BB103490348AFF3DD
:10013C00008008BD0000000008000020CC02000870
:10014C0080B400AF164B9B69154A43F014039361BE
:10015C00144B1B68134A23F4E0031360114B1B6808
:10016C00104A43F4000313600F4B5B680E4A43F4D0
:10017C00401353600C4B5B680B4A23F440035360F1
:10018C00084B9B6803F02003002B04D0064B4FF464
:10019C0000521A61F4E7044B4FF000521A61EFE77A
:1001AC0000100240000801400010014080B400AF74
:1001BC00FEE780B400AFFEE780B400AFFEE780B48A
:1001CC0000AFFEE780B400AFFEE780B400AF00BF25
:1001DC00BD4680BC704780B400AF00BFBD4680BC3C
:1001EC00704780B400AF00BFBD4680BC704780B57F
:1001FC0000AF00F02FF800BF80BD80B400AF00BF8F
:10020C00BD4680BC704700000C480D490D4A0023C8
:10021C0002E0D458C4500433C4188C42F9D30A4AAF
:10022C000A4C002301E013600432A242FBD3FFF717
:10023C00E4FF00F021F8FFF783FF70470000002077
:10024C0004000020EC020008040000202400002020
:10025C00FEE7000080B400AF054B1B781A46054B37
:10026C001B681344034A136000BFBD4680BC704733
:10027C00000000202000002070B500260C4D0D4C15
:10028C00641BA410A64209D100F01AF800260A4DEE
:10029C000A4C641BA410A64205D170BD55F8043B52
:1002AC0098470136EEE755F8043B98470136F2E7DC
:1002BC00E4020008E4020008E4020008E802000876
:1002CC00F8B500BFF8BC08BC9E467047F8B500BF37
:0802DC00F8BC08BC9E46704707
:0402E40031010008DC
:0402E8000D010008FC
:0402EC00010000000D
:0400000508000215D8
:00000001FF
