:020000040800F2
:100000000050002049050008F9040008FF0400081A
:10001000050500080B050008110500080000000098
:1000200000000000000000000000000017050008AC
:1000300023050008000000002F050008E90400085F
:100040009105000891050008910500089105000838
:100050009105000891050008B10400089105000809
:100060009105000891050008910500089105000818
:100070009105000891050008910500089105000808
:1000800091050008910500089105000891050008F8
:1000900091050008910500089105000891050008E8
:1000A00091050008910500089105000891050008D8
:1000B00091050008910500089105000891050008C8
:1000C00091050008910500089105000891050008B8
:1000D00091050008910500089105000891050008A8
:1000E0009105000891050008910500080000000036
:1000F0000000000000000000000000000000000000
:0C01000000000000000000005FF808F1A3
:10010C0010B5054C237833B9044B13B10448AFF345
:10011C0000800123237010BD0000002000000000AF
:10012C00DC05000808B5034B1BB103490348AFF3CA
:10013C00008008BD0000000004000020DC05000861
:10014C0090B488B000AF0446084611461A462346C0
:10015C00FB800346BB800B467B8013463B80BB88F1
:10016C00FB830023BB83BB88072B04D9FB8B083B89
:10017C00FB830123BB83BB8B9B0003F1804303F503
:10018C0084333B61BB8B9B0003F1804303F58633C7
:10019C007B61BB8B9B0003F1804303F58833BB6110
:1001AC00294A07F10C031268114619800233120C0C
:1001BC001A70264B1B68FA88013A07F120010A4491
:1001CC0012F8142C1146214A0B431360FB88013B97
:1001DC009B0007F12002134453F8103C1A68FB8B68
:1001EC009B000F2101FA03F3DB431946FB88013B0B
:1001FC009B0007F12000034453F8103C0A401A609E
:10020C00FB88013B9B0007F12002134453F8103C80
:10021C001A687988FB8B9B0099403888FB8B9B0074
:10022C00023300FA03F30B431946FB88013B9B0096
:10023C0007F12000034453F8103C0A431A6000BF36
:10024C002037BD4690BC7047F405000818100240DA
:10025C0080B487B000AF03460A46FB801346BB80D0
:10026C000D4A07F10C0307CA83E80700FB88013B22
:10027C009B0007F11802134453F80C3C1B68BA8816
:10028C00012101FA02F21A40BB8822FA03F3184644
:10029C001C37BD4680BC7047F805000880B487B099
:1002AC0000AF0346FB800B46BB8013467B80234A82
:1002BC0007F10C0307CA83E8070072B600BF7B88FE
:1002CC009BB2002B19D07B889BB21A46BB8802FAD2
:1002DC0003F1FB88013B9B0007F11802134453F810
:1002EC000C3C1A68FB88013B9B0007F11800034487
:1002FC0053F80C3C0A431A6018E0FB88013B9B0046
:10030C0007F11802134453F80C3C1A68BB880121FE
:10031C0001FA03F3DB431946FB88013B9B0007F111
:10032C001800034453F80C3C0A401A6062B600BF34
:10033C0000BF1C37BD4680BC704700BF04060008D8
:10034C0080B582B000AF03460A46FB801346BB80E3
:10035C00BA88FB8811461846FFF77AFF03461BB292
:10036C0083F001031BB29AB2B988FB881846FFF7D9
:10037C0095FF00BF0837BD4680BD000080B485B036
:10038C0000AF78600CE00023FB6002E0FB680133F7
:10039C00FB60FB68074A9342F8DD7B68013B7B609E
:1003AC007B68002BEFDC00BF00BF1437BD4680BC60
:1003BC00704700BF9F86010080B483B000AF034636
:1003CC00FB7197F90730002B0BDBFB7903F01F0255
:1003DC00064997F907305B09012000FA02F241F84F
:1003EC00232000BF0C37BD4680BC704700E100E005
:1003FC0080B500AF0223002200210120FFF7A0FEF0
:10040C00002303220E210320FFF79AFE0023032270
:10041C000D210320FFF794FE72B600BF1C4B002287
:10042C009A601C4B1B681B4A43F001031360194B69
:10043C009B68184A43F0010393600620FFF7BCFF4A
:10044C0062B600BF72B600BF134B00221A60124B8B
:10045C00124A5A60104B00229A600F4B07221A6006
:10046C0062B600BF0E4B1B68002B07D00E21032079
:10047C00FFF766FF0120FFF781FFF3E7084B1B68CE
:10048C009BB21A460E210320FFF708FFEAE700BFD4
:10049C00000001400004014010E000E0FF340C00BB
:1004AC001C00002080B400AF0A4B5B69094A43F082
:1004BC0001035361084B1B68012B03D1064B00222F
:1004CC001A6002E0044B01221A6000BFBD4680BCDA
:1004DC00704700BF000401401C00002080B500AF35
:1004EC000D210320FFF72CFF00BF80BD80B400AFAF
:1004FC00FEE780B400AFFEE780B400AFFEE780B447
:10050C0000AFFEE780B400AFFEE780B400AF00BFE1
:10051C00BD4680BC704780B400AF00BFBD4680BCF8
:10052C00704780B400AF00BFBD4680BC704780B43C
:10053C0000AF00BFBD4680BC704700000C480D49A1
:10054C000D4A002302E0D458C4500433C4188C4222
:10055C00F9D30A4A0A4C002301E013600432A24288
:10056C00FBD3FFF7E4FF00F00FF8FFF741FF7047F4
:10057C0000000020000000201806000800000020E9
:10058C0020000020FEE7000070B500260C4D0D4C3D
:10059C00641BA410A64209D100F01AF800260A4DDB
:1005AC000A4C641BA410A64205D170BD55F8043B3F
:1005BC0098470136EEE755F8043B98470136F2E7C9
:1005CC0010060008100600081006000814060008A3
:1005DC00F8B500BFF8BC08BC9E467047F8B500BF24
:0805EC00F8BC08BC9E467047F4
:1005F4000408100008080140080C014008100140DC
:0C0604000C0801400C0C01400C100140DF
:0406100031010008AC
:040614000D010008CC
:0400000508000549A1
:00000001FF
