:020000040800F2
:100000000050002019020008BD010008C3010008CB
:10001000C9010008CF010008D50100080000000058
:10002000000000000000000000000000DB010008EC
:10003000E701000800000000F3010008FF010008CC
:100040006102000861020008610200086102000804
:1000500061020008610200086102000861020008F4
:1000600061020008610200086102000861020008E4
:1000700061020008610200086102000861020008D4
:1000800061020008610200086102000861020008C4
:1000900061020008610200086102000861020008B4
:1000A00061020008610200086102000861020008A4
:1000B0006102000861020008610200086102000894
:1000C0006102000861020008610200086102000884
:1000D0006102000861020008610200086102000874
:1000E00061020008610200086102000800000000CF
:1000F0000000000000000000000000000000000000
:0C01000000000000000000005FF808F1A3
:10010C0010B5054C237833B9044B13B10448AFF345
:10011C0000800123237010BD0400002000000000AB
:10012C00D002000808B5034B1BB103490348AFF3D9
:10013C00008008BD0000000008000020D00200086C
:10014C0080B483B000AF174B9B69164A43F0100381
:10015C009361154B5B68144A43F440135360124B84
:10016C005B68114A23F44003536000237B6002E078
:10017C007B6801337B607B680C4A9342F8DD0A4B49
:10018C004FF400521A6100237B6002E07B6801335C
:10019C007B607B68054A9342F8DD034B4FF00052BD
:1001AC001A61E2E700100240001001409F86010036
:1001BC0080B400AFFEE780B400AFFEE780B400AFC0
:1001CC00FEE780B400AFFEE780B400AFFEE780B47A
:1001DC0000AF00BFBD4680BC704780B400AF00BF0D
:1001EC00BD4680BC704780B400AF00BFBD4680BC2C
:1001FC00704780B500AF00F02FF800BF80BD80B411
:10020C0000AF00BFBD4680BC704700000C480D49D4
:10021C000D4A002302E0D458C4500433C4188C4255
:10022C00F9D30A4A0A4C002301E013600432A242BB
:10023C00FBD3FFF7E4FF00F021F8FFF781FF7047D5
:10024C000000002004000020F00200080400002040
:10025C0024000020FEE7000080B400AF054B1B78A3
:10026C001A46054B1B681344034A136000BFBD4676
:10027C0080BC7047000000202000002070B50026D4
:10028C000C4D0D4C641BA410A64209D100F01AF8B9
:10029C0000260A4D0A4C641BA410A64205D170BD61
:1002AC0055F8043B98470136EEE755F8043B984760
:1002BC000136F2E7E8020008E8020008E80200084C
:1002CC00EC020008F8B500BFF8BC08BC9E467047AD
:0C02DC00F8B500BFF8BC08BC9E46704797
:0402E80031010008D8
:0402EC000D010008F8
:0402F0000100000009
:0400000508000219D4
:00000001FF
