:020000040800F2
:1000000000500020DD0900088D0900089309000850
:10001000990900089F090008A509000800000000D0
:10002000000000000000000000000000AB09000814
:10003000B709000800000000C3090008250A0008ED
:10004000250A0008250A0008250A0008250A0008D4
:10005000250A0008250A0008250A0008250A0008C4
:10006000250A0008250A0008250A0008250A0008B4
:10007000250A0008250A0008250A0008250A0008A4
:10008000250A0008250A0008250A0008250A000894
:10009000250A0008250A0008250A0008250A000884
:1000A000250A0008250A0008250A0008250A000874
:1000B000250A0008250A0008250A0008250A000864
:1000C000250A0008250A0008250A0008250A000854
:1000D000250A0008250A0008250A0008250A000844
:1000E000250A0008250A0008250A0008000000006B
:1000F0000000000000000000000000000000000000
:0C01000000000000000000005FF808F1A3
:10010C0010B5054C237833B9044B13B10448AFF345
:10011C0000800123237010BD0000002000000000AF
:10012C00700A000808B5034B1BB103490348AFF331
:10013C00008008BD0000000004000020700A0008C8
:10014C0080B58CB000AF0346FB710B46BB801346E9
:10015C007B80B88879880023002200F0BBFAB7F9BD
:10016C0002307B62B7F902300833BB62B7F9023058
:10017C000A33FB6207F1180307F1240207CA83E86C
:10018C0007003D4A07F1100392E8030083E80300DF
:10019C003A4A07F1080392E8030083E80300FB796D
:1001AC00013B9B0007F13002134453F8202C344BD5
:1001BC009B691146324A0B439361FB79013B9B00CF
:1001CC0007F13002134453F8283C00229A60B7F927
:1001DC000430013B9B0007F13002134453F8182CF8
:1001EC00FB79013B9B0007F130010B4453F8283C91
:1001FC005A63FB79013B9B0007F13002134453F81F
:10020C00283C9A68FB79013B9B0007F130010B44B9
:10021C0053F8283C42F001029A6000BF00BFFB7902
:10022C00013B9B0007F13002134453F8283C9A68B9
:10023C00FB79013B9B0007F130010B4453F8283C40
:10024C0042F001029A60FB79013B9B0007F13002FE
:10025C00134453F8283C9A68FB79013B9B0007F147
:10026C0030010B4453F8283C42F002029A600123FF
:10027C0018463037BD4680BD880A0008900A000831
:10028C000010024080B487B000AF0346FB710B46F0
:10029C00BB8013467B80104B1B6803F002033B6151
:1002AC000E4B1B6803F002037B6107F1080307F197
:1002BC00100292E8030083E80300FB79013B9B00EA
:1002CC0007F11802134453F8103CDBB218461C37E4
:1002DC00BD4680BC704700BF00240140002801408F
:1002EC0080B487B000AF0346FB710B46BB8013464E
:1002FC007B800D4BDB6C3B610C4BDB6C7B6107F14A
:10030C00080307F1100292E8030083E80300FB796D
:10031C00013B9B0007F11802134453F8103C18469C
:10032C001C37BD4680BC70470024014000280140AA
:10033C00B0B596B000AF0346B9607A60FB73AC4BB6
:10034C001B68AB4A43F001031360AA4B07F11C0472
:10035C001D460FCD0FC40FCD0FC495E80F0084E8D8
:10036C000F00FB7B9B0007F15802134453F83C3CF5
:10037C003B650123FB64FB7B052B01D90223FB644A
:10038C00FB6C98B23B6D99B20223032200F0A2F9E8
:10039C00994A07F1100307CA83E80700FB7B032B7C
:1003AC0003D8002387F8573009E0FB7B072B03D8D1
:1003BC00012387F8573002E0022387F857308C4B23
:1003CC00DB6997F85720012101FA02F21146884A9D
:1003DC000B43D361FB7B032B03D8FB7B87F8563095
:1003EC000BE0FB7B072B04D8FB7B043B87F85630D8
:1003FC0003E0FB7B083B87F8563097F857309B009F
:10040C0007F15802134453F8483C1A6A97F85630CF
:10041C009B00012101FA03F3194697F857309B0012
:10042C0007F15800034453F8483C0A431A6297F802
:10043C0057309B0007F15802134453F8483C1A6894
:10044C0097F857309B0007F158010B4453F8483C80
:10045C0042F080021A6097F85630012B2DD897F88D
:10046C005630002B14D197F857309B0007F15802E7
:10047C00134453F8483C9A6997F857309B0007F19E
:10048C0058010B4453F8483C42F068029A6141E031
:10049C0097F857309B0007F15802134453F8483C27
:1004AC009A6997F857309B0007F158010B4453F8A1
:1004BC00483C42F4D0429A612CE097F85630022B1B
:1004CC0014D897F857309B0007F15802134453F88F
:1004DC00483CDA6997F857309B0007F158010B44F8
:1004EC0053F8483C42F06802DA6113E097F8573051
:1004FC009B0007F15802134453F8483CDA6997F80B
:10050C0057309B0007F158010B4453F8483C42F418
:10051C00D042DA61BB687A6802FB03F3374A92FB7C
:10052C00F3F297F857309B0007F158010B4453F83E
:10053C00483C9A6297F857309B0007F158021344D5
:10054C0053F8483C7A68DA6297F857309B0007F109
:10055C005802134453F8483C00225A6397F857301A
:10056C009B0007F15802134453F8483C00229A634D
:10057C0097F857309B0007F15802134453F8483C46
:10058C000022DA6397F857309B0007F158021344A6
:10059C0053F8483C00221A6497F857309B0007F137
:1005AC005802134453F8483C5A6997F857309B004B
:1005BC0007F158010B4453F8483C42F001025A61D0
:1005CC0097F857309B0007F15802134453F8483CF6
:1005DC001A6897F857309B0007F158010B4453F8F1
:1005EC00483C42F001021A6000BF5837BD46B0BD0E
:1005FC0000100240980A0008C80A000800127A008D
:10060C0080B48BB000AF03463960FB71304A07F100
:10061C00180307CA83E80700FB79032B03D80023D0
:10062C0087F8273009E0FB79072B03D8012387F8DB
:10063C00273002E0022387F82730FB79032B03D8FD
:10064C00FB7987F826300BE0FB79072B04D8FB7974
:10065C00043B87F8263003E0FB79083B87F826300B
:10066C0097F827309B0007F12802134453F8103CED
:10067C003433BB6097F827309B0007F128021344F2
:10068C0053F8103C3833FB6097F827309B0007F188
:10069C002802134453F8103C3C333B6197F8273045
:1006AC009B0007F12802134453F8103C40337B6144
:1006BC0097F826309B0007F12802134453F8203C8E
:1006CC003A681A6000BF2C37BD4680BC704700BF2B
:1006DC00C80A000890B488B000AF0446084611461A
:1006EC001A462346FB800346BB800B467B80134691
:1006FC003B80BB88FB830023BB83BB88072B04D9BF
:10070C00FB8B083BFB830123BB83BB8B9B0003F15F
:10071C00804303F584333B61BB8B9B0003F1804327
:10072C0003F586337B61BB8B9B0003F1804303F5A0
:10073C008833BB61294A07F10C03126811461980F2
:10074C000233120C1A70264B1B68FA88013A07F117
:10075C0020010A4412F8142C1146214A0B43136051
:10076C00FB88013B9B0007F12002134453F8103C1B
:10077C001A68FB8B9B000F2101FA03F3DB4319462C
:10078C00FB88013B9B0007F12000034453F8103C0D
:10079C000A401A60FB88013B9B0007F120021344BE
:1007AC0053F8103C1A687988FB8B9B009940388869
:1007BC00FB8B9B00023300FA03F30B431946FB88B7
:1007CC00013B9B0007F12000034453F8103C0A4303
:1007DC001A6000BF2037BD4690BC7047D40A000891
:1007EC001810024080B400AF034B05221A6000BF02
:1007FC00BD4680BC704700BF10E000E080B400AF85
:10080C00094B41F63F725A60074B00229A6000BFB9
:10081C00054B1B6803F48033002BF9D000BF00BFDD
:10082C00BD4680BC704700BF10E000E080B582B0D0
:10083C0000AF786004E0FFF7E1FF7B68013B7B6071
:10084C007B68002BF7D100BF00BF0837BD4680BDC9
:10085C0080B584B000AF052000F062F84FF47A72D6
:10086C004FF47A710A20FFF763FD4FF47A724FF45C
:10087C007A710B20FFF75CFD002201210120FFF7AC
:10088C005FFCFFF7AFFF0023FB600023BB7200236C
:10089C00FB72F9680A20FFF7B3FEFB68C3F57A73A5
:1008AC0019460B20FFF7ACFEFB7A002B03D0FB683C
:1008BC00643BFB6002E0FB686433FB606420FFF781
:1008CC00B5FFFB68002B03D0FB68B3F57A7F03D12F
:1008DC00FB7A83F00103FB7200BF0022012101208F
:1008EC00FFF7D0FC0346002BF7D00022012101209A
:1008FC00FFF7F6FC0346B42202FB03F3074A82FB24
:10090C0003121A44D212DB17D31A7B607B68DBB25A
:10091C001946052000F014F8BBE700BF81000880E1
:10092C0080B582B000AF0346FB71FB7941F288328F
:10093C0032211846FFF7FCFC00BF0837BD4680BDCE
:10094C0080B582B000AF03460A46FB711346BB71FB
:10095C00BB794FF4FA7202FB03F3084A82FB0312D1
:10096C001A44D211DB17D31A963319460520FFF718
:10097C0047FEBB7918460837BD4680BDB7600BB63D
:10098C0080B400AFFEE780B400AFFEE780B400AFE8
:10099C00FEE780B400AFFEE780B400AFFEE780B4A2
:1009AC0000AF00BFBD4680BC704780B400AF00BF35
:1009BC00BD4680BC704780B400AF00BFBD4680BC54
:1009CC00704780B400AF00BFBD4680BC70470000CC
:1009DC000C480D490D4A002302E0D458C45004338E
:1009EC00C4188C42F9D30A4A0A4C002301E0136064
:1009FC000432A242FBD3FFF7E4FF00F00FF8FFF73D
:100A0C0027FF70470000002000000020F80A0008B3
:100A1C00000000201C000020FEE7000070B500263E
:100A2C000C4D0D4C641BA410A64209D100F01AF811
:100A3C0000260A4D0A4C641BA410A64205D170BDB9
:100A4C0055F8043B98470136EEE755F8043B9847B8
:100A5C000136F2E7F00A0008F00A0008F00A000874
:100A6C00F40A0008F8B500BFF8BC08BC9E467047F5
:0C0A7C00F8B500BFF8BC08BC9E467047EF
:100A88000102000001040000002401400028014088
:100A98000000000001000000020000000300000048
:100AA8000600000007000000000000000100000030
:100AB8000600000007000000080000000900000010
:100AC8000000004000040040000800400408100036
:100AD80008080140080C0140081001400C080140BA
:080AE8000C0C01400C10014050
:040AF00031010008C8
:040AF4000D010008E8
:04000005080009DD09
:00000001FF
