:020000040800F2
:100000000050002029120008D9110008DF11000853
:10001000E5110008EB110008F111000800000000D4
:10002000000000000000000000000000F7110008C0
:1000300003120008000000000F12000871120008EF
:100040007112000871120008711200087112000884
:100050007112000871120008711200087112000874
:100060007112000871120008711200087112000864
:100070007112000871120008711200087112000854
:100080007112000871120008711200087112000844
:100090007112000871120008711200087112000834
:1000A0007112000871120008711200087112000824
:1000B0007112000871120008711200087112000814
:1000C0007112000871120008711200087112000804
:1000D000711200087112000889110008B11100089E
:1000E000711200087112000871120008000000006F
:1000F0000000000000000000000000000000000000
:0C01000000000000000000005FF808F1A3
:1001100010B5054C237833B9044B13B10448AFF341
:1001200000800123237010BD0400002000000000A7
:10013000BC12000808B5034B1BB103490348AFF3D9
:10014000008008BD0000000008000020BC1200086C
:1001500081F0004102E000BF83F0004330B54FEA78
:1001600041044FEA430594EA050F08BF90EA020FE5
:100170001FBF54EA000C55EA020C7FEA645C7FEA78
:10018000655C00F0E2804FEA5454D4EB5555B8BF9B
:100190006D420CDD2C4480EA020281EA030382EA0C
:1001A000000083EA010180EA020281EA0303362D9E
:1001B00088BF30BD11F0004F4FEA01314FF4801C71
:1001C0004CEA113102D0404261EB410113F0004F83
:1001D0004FEA03334CEA133302D0524263EB43033A
:1001E00094EA050F00F0A780A4F10104D5F1200ED8
:1001F0000DDB02FA0EFC22FA05F2801841F1000133
:1002000003FA0EF2801843FA05F359410EE0A5F106
:1002100020050EF1200E012A03FA0EFC28BF4CF037
:10022000020C43FA05F3C01851EBE37101F00045ED
:1002300007D54FF0000EDCF1000C7EEB00006EEBFA
:100240000101B1F5801F1BD3B1F5001F0CD3490884
:100250005FEA30004FEA3C0C04F101044FEA4452DB
:1002600012F5800F80F09A80BCF1004F08BF5FEA62
:10027000500C50F1000041EB045141EA050130BD42
:100280005FEA4C0C404141EB0101013C28BFB1F554
:10029000801FE9D291F0000F04BF01460020B1FA9F
:1002A00081F308BF2033A3F10B03B3F120020CDA72
:1002B0000C3208DD02F1140CC2F10C0201FA0CF050
:1002C00021FA02F10CE002F11402D8BFC2F1200CB5
:1002D00001FA02F120FA0CFCDCBF41EA0C0190406B
:1002E000E41AA2BF01EB0451294330BD6FEA0404B4
:1002F0001F3C1CDA0C340EDC04F11404C4F120029F
:1003000020FA04F001FA02F340EA030021FA04F3B0
:1003100045EA030130BDC4F10C04C4F1200220FA07
:1003200002F001FA04F340EA0300294630BD21FA45
:1003300004F0294630BD94F0000F83F4801306BF0B
:1003400081F480110134013D4EE77FEA645C18BFFF
:100350007FEA655C29D094EA050F08BF90EA020F96
:1003600005D054EA000C04BF1946104630BD91EA8E
:10037000030F1EBF0021002030BD5FEA545C05D191
:100380004000494128BF41F0004130BD14F58004D0
:100390003CBF01F5801130BD01F0004545F0FE4144
:1003A00041F470014FF0000030BD7FEA645C1ABF79
:1003B000194610467FEA655C1CBF0B46024650EAB0
:1003C000013406BF52EA033591EA030F41F40021DC
:1003D00030BD00BF90F0000F04BF0021704730B562
:1003E0004FF4806404F132044FF000054FF0000137
:1003F00050E700BF90F0000F04BF0021704730B5F8
:100400004FF4806404F1320410F0004548BF4042CC
:100410004FF000013EE700BF42004FEAE2014FEA21
:1004200031014FEA02701FBF12F07F4393F07F4FFC
:1004300081F06051704732F07F4208BF704793F0FF
:100440007F4F04BF41F40021704730B54FF4607412
:1004500001F0004521F000411CE700BF50EA010215
:1004600008BF704730B54FF000050AE050EA0102BE
:1004700008BF704730B511F0004502D5404261EB2E
:1004800041014FF4806404F132045FEA915C3FF46F
:10049000D8AE4FF003025FEADC0C18BF03325FEA0C
:1004A000DC0C18BF033202EBDC02C2F1200300FABD
:1004B00003FC20FA02F001FA03FE40EA0E0021FAE2
:1004C00002F11444BDE600BF70B54FF0FF0C4CF4D0
:1004D000E06C1CEA11541DBF1CEA135594EA0C0F82
:1004E00095EA0C0F00F0DEF82C4481EA030621EABD
:1004F0004C5123EA4C5350EA013518BF52EA0335F8
:1005000041F4801143F4801338D0A0FB02CE4FF0A9
:100510000005E1FB02E506F00042E0FB03E54FF0D9
:100520000006E1FB03569CF0000F18BF4EF0010ED1
:10053000A4F1FF04B6F5007F64F5407404D25FEACD
:100540004E0E6D4146EB060642EAC62141EA555180
:100550004FEAC52040EA5E504FEACE2EB4F1FD0CC2
:1005600088BFBCF5E06F1ED8BEF1004F08BF5FEA40
:10057000500E50F1000041EB045170BD06F00046F2
:1005800046EA010140EA020081EA0301B4EB5C049F
:10059000C2BFD4EB0C0541EA045170BD41F4801197
:1005A0004FF0000E013C00F3AB8014F1360FDEBFBC
:1005B000002001F0004170BDC4F10004203C35DA98
:1005C0000C341BDC04F11404C4F1200500FA05F31B
:1005D00020FA04F001FA05F240EA020001F00042BC
:1005E00021F0004110EBD37021FA04F642EB060132
:1005F0005EEA430E08BF20EAD37070BDC4F10C045C
:10060000C4F1200500FA04F320FA05F001FA04F21F
:1006100040EA020001F0004110EBD37041F100010B
:100620005EEA430E08BF20EAD37070BDC4F1200516
:1006300000FA05F24EEA020E20FA04F301FA05F27E
:1006400043EA020321FA04F001F0004121FA04F226
:1006500020EA020000EBD3705EEA430E08BF20EAF6
:10066000D37070BD94F0000F0FD101F00046400030
:1006700041EB010111F4801F08BF013CF7D041EAB2
:10068000060195F0000F18BF704703F000465200B6
:1006900043EB030313F4801F08BF013DF7D043EA87
:1006A0000603704794EA0C0F0CEA135518BF95EA3D
:1006B0000C0F0CD050EA410618BF52EA4306D1D1C4
:1006C00081EA030101F000414FF0000070BD50EAE3
:1006D000410606BF1046194652EA430619D094EA6D
:1006E0000C0F02D150EA013613D195EA0C0F05D157
:1006F00052EA03361CBF104619460AD181EA0301AB
:1007000001F0004141F0FE4141F470014FF0000062
:1007100070BD41F0FE4141F4780170BD70B54FF0FD
:10072000FF0C4CF4E06C1CEA11541DBF1CEA13557D
:1007300094EA0C0F95EA0C0F00F0A7F8A4EB05045F
:1007400081EA030E52EA03354FEA013100F0888056
:100750004FEA03334FF0805545EA131343EA12631F
:100760004FEA022245EA111545EA10654FEA0026D4
:100770000EF000419D4208BF964244F1FD0404F58D
:10078000407402D25B084FEA3202B61A65EB0305E9
:100790005B084FEA32024FF480104FF4002CB6EBA6
:1007A000020E75EB030E22BFB61A754640EA0C0026
:1007B0005B084FEA3202B6EB020E75EB030E22BF66
:1007C000B61A754640EA5C005B084FEA3202B6EBA7
:1007D000020E75EB030E22BFB61A754640EA9C0066
:1007E0005B084FEA3202B6EB020E75EB030E22BF36
:1007F000B61A754640EADC0055EA060E18D04FEAF4
:10080000051545EA16754FEA06164FEAC30343EA93
:1008100052734FEAC2025FEA1C1CC0D111F4801F60
:100820000BD141EA00014FF000004FF0004CB6E759
:1008300011F4801F04BF01430020B4F1FD0C88BFF8
:10084000BCF5E06F3FF6AFAEB5EB030C04BFB6EB03
:10085000020C5FEA500C50F1000041EB045170BDF6
:100860000EF0004E4EEA113114EB5C04C2BFD4EB23
:100870000C0541EA045170BD41F480114FF0000EA7
:10088000013C90E645EA060E8DE60CEA135594EA23
:100890000C0F08BF95EA0C0F3FF43BAF94EA0C0F26
:1008A0000AD150EA01347FF434AF95EA0C0F7FF49B
:1008B00025AF104619462CE795EA0C0F06D152EAEF
:1008C00003353FF4FDAE1046194622E750EA4106D3
:1008D00018BF52EA43067FF4C5AE50EA41047FF4E4
:1008E0000DAF52EA43057FF4EBAE12E74FF0FF3C49
:1008F00006E000BF4FF0010C02E000BF4FF0010C1A
:100900004DF804CD4FEA410C7FEA6C5C4FEA430C92
:1009100018BF7FEA6C5C1BD001B050EA410C0CBFE1
:1009200052EA430C91EA030F02BF90EA020F002043
:10093000704710F1000F91EA030F58BF994208BFAA
:1009400090422CBFD8176FEAE37040F00100704767
:100950004FEA410C7FEA6C5C02D150EA013C07D1BE
:100960004FEA430C7FEA6C5CD6D152EA033CD3D009
:100970005DF8040B704700BF8446104662468C4603
:100980001946634600E000BF01B5FFF7B7FF002836
:1009900048BF10F1000F01BD4DF808EDFFF7F4FF5F
:1009A0000CBF012000205DF808FB00BF4DF808EDEA
:1009B000FFF7EAFF34BF012000205DF808FB00BF0D
:1009C0004DF808EDFFF7E0FF94BF012000205DF82F
:1009D00008FB00BF4DF808EDFFF7CEFF94BF0120E4
:1009E00000205DF808FB00BF4DF808EDFFF7C4FFDD
:1009F00034BF012000205DF808FB00BF4A0011D27F
:100A000012F5001211D20DD56FF47873B3EB625268
:100A10000ED44FEAC12343F0004343EA505323FA74
:100A200002F070474FF00000704750EA013002D1E9
:100A30004FF0FF3070474FF00000704780B483B034
:100A400000AF0346FB7197F90730002B0BDBFB79F6
:100A500003F01F02064997F907305B09012000FAED
:100A600002F241F8232000BF0C37BD4680BC70471E
:100A700000E100E080B590B000AF03463960FB8034
:100A800072B600BF5F4B9B695E4A43F001039361FE
:100A90005D4A07F1300307CA83E807005B4A07F1A4
:100AA000240307CA83E80700594A07F11C0392E8A8
:100AB0000300186004331980564A07F1100307CA6F
:100AC00083E80700FB88013B9B0007F140021344C9
:100AD00053F8303C1968FB88013B9B0007F140024A
:100AE000134453F81C2CFB88013B9B0007F140008A
:100AF000034453F8303C0A431A60474A07F10C0399
:100B00001268114619800233120C1A70FB88013BDF
:100B100007F14002134413F8343C98B2FB88013BC0
:100B20005B0007F14002134413F8243C99B20223FE
:100B3000032200F0AFF9FB88013B07F140021344A8
:100B400013F8343C98B2FB88013B5B0007F140028C
:100B5000134413F8233C99B20223002200F09AF9BF
:100B6000386800F05DF8F863FB88013B9B0007F1F3
:100B70004002134453F8103CFA6B9A60FB88013B27
:100B80009B0007F14002134453F8103CDA68FB88DD
:100B9000013B9B0007F140010B4453F8103C42F02D
:100BA0002002DA60FB88013B9B0007F140021344FE
:100BB00053F8103CD968FB88013B9B0007F14002C9
:100BC000134453F8102C41F4005343F00C03D3604A
:100BD000124A07F108031268114619800233120CF9
:100BE0001A70FB88013B07F14002134413F9383CAB
:100BF0001846FFF723FF62B600BF00BF4037BD466F
:100C000080BD00BF00100240D4120008E0120008AE
:100C1000EC120008F4120008001300080413000886
:100C2000B0B58AB000AF78603B4B7B6238A3D3E9A4
:100C30000023C7E906234FF00002384BC7E904231D
:100C40007B681B017A6AB2FBF3F37B627B681B0152
:100C50001846FFF7BFFB02460B46D7E90601FFF730
:100C60005DFD02460B4614461D46786AFFF7B2FB4F
:100C700002460B4620462946FFF76EFA02460B460F
:100C8000104619464FF00002254BFFF71DFC0246A7
:100C90000B46C7E90623D7E90601FFF7AFFE034677
:100CA0003B62386AFFF796FB02460B46D7E906011E
:100CB000FFF752FA02460B46104619464FF0000263
:100CC000184BFFF701FC02460B46C7E904234FF01F
:100CD0000002154BD7E90401FFF786FE0346002BFF
:100CE0000AD03B6A01333B623B6A102B04D10023DC
:100CF0003B627B6A01337B627B6A1B01FB60FA68A3
:100D00003B6A1344FB60FB6818462837BD46B0BDFC
:100D10000000000080845E4100127A000000F03F75
:100D200000003040000059400000494080B487B0C6
:100D300000AF0346FB80114A07F10C0307CA83E8A2
:100D4000070000BFFB88013B9B0007F1180213441A
:100D500053F80C3C1B6803F02003002BF2D0FB88F7
:100D6000013B9B0007F11802134453F80C3C5B68ED
:100D7000DBB218461C37BD4680BC7047D412000851
:100D800080B487B000AF03460A46FB8013467B71F0
:100D9000114A07F10C0307CA83E80700FB88013BEF
:100DA0009B0007F11802134453F80C3C7A795A60FF
:100DB00000BFFB88013B9B0007F11802134453F866
:100DC0000C3C1B6803F04003002BF2D000BF00BFB7
:100DD0001C37BD4680BC7047D412000880B584B073
:100DE00000AF03463960FB800023FB600BE0FB682B
:100DF0005A1CFA601A463B6813441A78FB8811465D
:100E00001846FFF7BDFFFB683A6813441B78002BB8
:100E1000EDD100BF00BF1037BD4680BD90B585B095
:100E200000AFBA607B600346FB810B46BB81BB8988
:100E3000002B20D17B681B881A463B6A9C18FB89D3
:100E40001846FFF773FF034623707B681B881A461A
:100E50003B6A13441B780A2B06D17B6800221A8058
:100E6000BB6801221A8011E07B681B8801339AB2AB
:100E70007B681A800AE0FB891846FFF757FF034694
:100E80001A46BB8911461846FFF77AFF00BF143790
:100E9000BD4690BD90B488B000AF044608461146E8
:100EA0001A462346FB800346BB800B467B801346D5
:100EB0003B80BB88FB830023BB83BB88072B04D903
:100EC000FB8B083BFB830123BB83BB8B9B0003F1A4
:100ED000804303F584333B61BB8B9B0003F180436C
:100EE00003F586337B61BB8B9B0003F1804303F5E5
:100EF0008833BB61294A07F10C0312681146198037
:100F00000233120C1A70264B1B68FA88013A07F15B
:100F100020010A4412F8142C1146214A0B43136095
:100F2000FB88013B9B0007F12002134453F8103C5F
:100F30001A68FB8B9B000F2101FA03F3DB43194670
:100F4000FB88013B9B0007F12000034453F8103C51
:100F50000A401A60FB88013B9B0007F12002134402
:100F600053F8103C1A687988FB8B9B0099403888AD
:100F7000FB8B9B00023300FA03F30B431946FB88FB
:100F8000013B9B0007F12000034453F8103C0A4347
:100F90001A6000BF2037BD4690BC70470813000898
:100FA0001810024080B400AF034B05221A6000BF46
:100FB000BD4680BC704700BF10E000E080B400AFC9
:100FC000094B41F63F725A60074B00229A6000BFFE
:100FD000054B1B6803F48033002BF9D000BF00BF22
:100FE000BD4680BC704700BF10E000E080B582B015
:100FF00000AF786004E0FFF7E1FF7B68013B7B60B6
:101000007B68002BF7D100BF00BF0837BD4680BD0D
:1010100080B483B000AF03463960FB7197F90730A5
:10102000002B0ADB3B68DAB20C4997F90730120152
:10103000D2B20B4483F800230AE03B68DAB20849D5
:10104000FB7903F00F03043B1201D2B20B441A7672
:1010500000BF0C37BD4680BC704700BF00E100E018
:1010600000ED00E080B582B000AF78607B68013BA6
:10107000B3F1807F01D301230FE00A4A7B68013B73
:1010800053600F214FF0FF30FFF7C2FF054B0022E6
:101090009A60044B07221A60002318460837BD46A1
:1010A00080BD00BF10E000E080B582B000AF1F4BF4
:1010B0001B681F4AA2FB03239B091846FFF7D2FFB8
:1010C000FFF770FF4FF416510220FFF7D3FC4FF4E7
:1010D00016510320FFF7CEFC164B7B606420FFF710
:1010E00085FF15490220FFF779FE14490320FFF719
:1010F00075FE134B1B88012B09D112490320FFF702
:101100006DFE0F4B00221A800E4800F021F80E4BA6
:101110001B88012BEDD10D490220FFF75FFE0A4B22
:1011200000221A80094800F013F8E2E700000020CE
:10113000D34D621024130008441300085413000810
:101140002200002020020020260000202401002090
:1011500080B485B000AF78600023FB6007E0FB68D7
:101160007A68134400221A70FB680133FB60FB6845
:101170007A6813441B78002BF1D100BF00BF1437ED
:10118000BD4680BC7047000080B582B002AF054B01
:101190000093054B054A00210220FFF73FFE00BFE8
:1011A000BD4680BD2002002020000020220000203B
:1011B00080B582B002AF054B0093054B054A002174
:1011C0000320FFF72BFE00BFBD4680BD2401002099
:1011D000240000202600002080B400AFFEE780B489
:1011E00000AFFEE780B400AFFEE780B400AFFEE7DB
:1011F00080B400AFFEE780B400AF00BFBD4680BC46
:10120000704780B400AF00BFBD4680BC704780B45B
:1012100000AF00BFBD4680BC704780B400AF00BFC8
:10122000BD4680BC704700000C480D490D4A0023A4
:1012300002E0D458C4500433C4188C42F9D30A4A8B
:101240000A4C002301E013600432A242FBD3FFF7F3
:10125000E4FF00F00FF8FFF727FF704700000020C1
:10126000040000206C130008040000201C03002070
:10127000FEE7000070B500260C4D0D4C641BA41059
:10128000A64209D100F01AF800260A4D0A4C641B48
:10129000A410A64205D170BD55F8043B984701360D
:1012A000EEE755F8043B98470136F2E7641300086F
:1012B000641300086413000868130008F8B500BF41
:1012C000F8BC08BC9E467047F8B500BFF8BC08BC27
:0412D0009E4670477F
:1012D4000038014000440040004800400040000045
:1012E4000000020000000400090A02030A0B0000C7
:1012F400181002401C1002401C10024001010200A0
:10130400252627000408100008080140080C0140A5
:10131400081001400C0801400C0C01400C10014065
:1013240057656C636F6D6520677579732C20686FE2
:10133400772061726520796F75203F0D0A000000E7
:101344005468697320697320554152542032000057
:101354005468697320697320554152542033000046
:041364003501000847
:041368001101000867
:04136C000024F40065
:0400000508001229B4
:00000001FF
